:100000000C9483000C94B4000C94B4000C94B400D1
:100010000C94B4000C94B4000C94B4000C94B40090
:100020000C94B4000C94B4000C94B4000C94B40080
:100030000C94B4000C94B4000C94B4000C94B40070
:100040000C94B4000C94B4000C94B4000C94B40060
:100050000C94B4000C94B4000C94B4000C941C02E6
:100060000C94B4000C9490020C9466020C94B400AE
:100070000C94B4000C94B4000C94B4000C94B40030
:100080000C94B4000C94B4000C94B4000C94B40020
:100090000C94B4000C94B4000C94B4000C94B40010
:1000A0000C94B4000C94B4000C94B4000C94B40000
:1000B0000C94B4000C94B4000C94B4000C94B400F0
:1000C0000C94B4000C94B4000C94B4000C94B400E0
:1000D0000C94B4000C94B4000C94B4000C94B400D0
:1000E0000C94B4000C9417010C9408010C94710149
:1000F0000C9468030C942B010C94DB000C943901D4
:100100000C94BE01680311241FBECFEFD1E2DEBF05
:10011000CDBF00E00CBF12E0A0E0B2E0EEE3F7E0FC
:1001200000E00BBF02C007900D92AE35B107D9F7C2
:1001300023E0AEE5B2E001C01D92A430B207E1F7C2
:1001400010E0C3E8D0E000E006C021970109802F4D
:10015000FE010E949503C238D10780E00807A9F785
:100160000E94C6020C949D030C9400003FB7F894C3
:100170008091630290916402A0916502B091660241
:1001800026B5A89B05C02F3F19F00196A11DB11DF2
:100190003FBFBA2FA92F982F8827BC01CD01620F2E
:1001A000711D811D911D42E0660F771F881F991FE9
:1001B0004A95D1F70895AF92BF92CF92DF92EF9216
:1001C000FF920F931F93CF93DF936C017B018B0101
:1001D000040F151FEB015E01AE18BF08C017D10751
:1001E00059F06991D601ED91FC910190F081E02DDB
:1001F000C6011995892B79F7C501DF91CF911F9120
:100200000F91FF90EF90DF90CF90BF90AF90089547
:10021000FC01538D448D252F30E0842F90E0821B0C
:10022000930B541710F0CF96089501970895FC0191
:10023000918D828D981761F0A28DAE0FBF2FB11DE9
:100240005D968C91928D9F5F9F73928F90E0089541
:100250008FEF9FEF0895FC01918D828D981731F0FB
:10026000828DE80FF11D858D90E008958FEF9FEF4F
:100270000895FC01918D228D892F90E0805C9F4F25
:10028000821B91098F739927089587E692E00E9457
:10029000390121E0892B09F420E0822F0895FC0127
:1002A000A48DA80FB92FB11DA35ABF4F2C91848DD7
:1002B00090E001968F739927848FA689B7892C9334
:1002C000A089B1898C91837080648C93938D848D87
:1002D000981306C00288F389E02D80818F7D80838A
:1002E0000895EF92FF920F931F93CF93DF93EC014A
:1002F00081E0888F9B8D8C8D98131AC0E889F989CD
:10030000808185FF15C09FB7F894EE89FF896083CF
:10031000E889F98980818370806480839FBF81E050
:1003200090E0DF91CF911F910F91FF90EF90089592
:10033000F62E0B8D10E00F5F1F4F0F731127E02E6D
:100340008C8D8E110CC00FB607FCFACFE889F989A5
:10035000808185FFF5CFCE010E944F01F1CFEB8D5B
:10036000EC0FFD2FF11DE35AFF4FF0829FB7F89479
:100370000B8FEA89FB8980818062CFCFCF93DF9397
:10038000EC01888D8823B9F0AA89BB89E889F989AD
:100390008C9185FD03C0808186FD0DC00FB607FCE2
:1003A000F7CF8C9185FFF2CF808185FFEDCFCE0115
:1003B0000E944F01E9CFDF91CF91089580E090E056
:1003C000892B29F00E94450181110E94000080E0E4
:1003D00090E0892B49F080E090E0892B29F00E9481
:1003E000000081110E94000080E090E0892B49F01C
:1003F00080E090E0892B29F00E94000081110E948A
:10040000000080E090E0892B49F080E090E0892BAB
:1004100029F00E94000081110C9400000895FC0155
:1004200001900020E9F73197AF01481B590BBC013F
:1004300087E692E00C94DB001F920F920FB60F92AA
:1004400011242F933F938F939F93AF93BF938091EA
:100450005F0290916002A0916102B09162023091BE
:100460005E0223E0230F2D3768F126E8230F029662
:10047000A11DB11D20935E0280935F0290936002E4
:10048000A0936102B0936202809163029091640232
:10049000A0916502B09166020196A11DB11D8093E5
:1004A000630290936402A0936502B0936602BF91C9
:1004B000AF919F918F913F912F910F900FBE0F9011
:1004C0001F9018950196A11DB11DD4CF1F920F92B8
:1004D0000FB60F9211240BB60F922F933F934F93A9
:1004E0005F936F937F938F939F93AF93BF93EF939C
:1004F000FF9387E692E00E944F01FF91EF91BF9139
:10050000AF919F918F917F916F915F914F913F91AB
:100510002F910F900BBE0F900FBE0F901F9018954C
:100520001F920F920FB60F9211240BB60F922F93BA
:100530008F939F93EF93FF93E0917702F09178026E
:100540008081E0917D02F0917E0282FD1DC090814C
:10055000809180028F5F8F7320918102821741F01A
:10056000E0918002F0E0E959FD4F958F8093800281
:10057000FF91EF919F918F912F910F900BBE0F9054
:100580000FBE0F901F9018958081F2CF789484B59C
:10059000836084BD85B5836085BD80916E00816078
:1005A00080936E0092E09093810080918100816041
:1005B0008093810080918000816080938000809191
:1005C000B10084608093B1008091B000816080931D
:1005D000B0008091910083608093910080919000A1
:1005E0008160809390008091A10083608093A1003E
:1005F0008091A00081608093A000809121018360A0
:10060000809321018091200181608093200187E8FF
:1006100080937A001092C100E0917702F091780205
:100620009083E0917302F09174021082E091750260
:10063000F091760280E1808310927F02E0917B024C
:10064000F0917C0286E08083E0917902F0917A0259
:10065000808188698083E0917902F0917A028081BB
:100660008F7D808382E192E00E940F0286E392E018
:100670000E940F020E94B6004B015C0188EEC82E5A
:1006800083E0D82EE12CF12C0E94B600681979097C
:100690008A099B09683E734081059105A8F321E012
:1006A000C21AD108E108F10888EE880E83E0981E8E
:1006B000A11CB11CC114D104E104F10429F789E3A0
:1006C00092E00E940F0286E392E00E940F02FFCFA9
:1006D000E7E6F2E01382128288EE93E0A0E0B0E059
:1006E00084839583A683B78384E092E0918380839B
:1006F00085EC90E09587848784EC90E097878687E7
:1007000080EC90E0918B808B81EC90E0938B828BDE
:1007100082EC90E0958B848B86EC90E0978B868BB7
:10072000118E128E138E148E0895EE0FFF1F881FE8
:0E0730008BBF0790F691E02D1994F894FFCF3F0117
:10073E00000000007101DB000801BE013901170144
:10074E002B0153494D373630303A20757064617441
:10075E0065642073756365737366756C6C7920239D
:10076E002323232323000D0A0053494D37363030FF
:10077E003A20757064617465642073756365737374
:0E078E0066756C6C79202A2A2A2A2A2A0000150117
:00000001FF
