:100000000C9462010C9493010C9493010C94930151
:100010000C9493010C9493010C9493010C94930110
:100020000C9493010C9493010C9493010C94930100
:100030000C9493010C9493010C9493010C949301F0
:100040000C9493010C9493010C9493010C949301E0
:100050000C9493010C9493010C9493010C94361C12
:100060000C9493010C940A1D0C94E01C0C949301C5
:100070000C9493010C9493010C9493010C949301B0
:100080000C9493010C9493010C9493010C949301A0
:100090000C94AA1C0C94801C0C9493010C94930156
:1000A0000C9493010C9493010C9493010C94930180
:1000B0000C9493010C9493010C9493010C94930170
:1000C0000C9493010C9493010C9493010C94930160
:1000D0000C9493010C9493010C9493010C94930150
:1000E0000C9493010C940D020C9411020C948E0349
:1000F0000C9437020C9429020C941F0E0C942102CC
:100100000C94401D0C94EE020C943D020C944C0394
:100110000C94680D0C94F20D0C94020E0C943302A6
:100120000C94C90D0C9409020C94620B0C945E0F94
:100130000C9445020C943E030C94D20D0C94540F75
:100140000C9417020C94F2010C942F020C942A03C5
:100150000C9449020C94B1020C9441020C942502B7
:100160000C94F7010C941B030C941B020C94DB03FE
:100170006364696E6F70737578585B007C3C3E5E9B
:100180002B3D3F2F5B5D3B2C2A225C0000000B0CBB
:10019000030A0D0E0F09080405020000000000000C
:1001A000000000000000000000000000000000004F
:1001B0000000000000000000131211000000000009
:1001C000000000000000000000000000000000002F
:1001D000000000000000000000000000000000001F
:1001E000000000002200250028002B002E00310016
:1001F000340002010000050108010B01000021008C
:10020000240027002A002D003000330001010000E7
:10021000040107010A010505050507050808080886
:10022000020202020A0A080804040404010101018E
:100230000101010103030303030303030407070789
:100240000C0C0C0C0C0C0C0C02020202060606062E
:10025000060606060B0B0B0B0B0B0B0B0505050817
:100260000807070404040A0A0A0A0A0A01021020FD
:1002700020080810204010204080020102010804DC
:100280000201010204081020408080402010080470
:1002900002018004020180402010080402010804C9
:1002A000020101020408102040800102040810200D
:1002B0004080044080048008101020400408102072
:1002C0004080401D11241FBECFEFD1E2DEBFCDBF65
:1002D00000E00CBF2AE0A8EDB6E001C01D92A639EF
:1002E000B207E1F716E0A0E0B2E0E2E1F7E500E0F6
:1002F0000BBF02C007900D92A83DB107D9F711E0DE
:10030000C2E6D1E000E006C021970109802FFE017E
:100310000E948B25C136D10780E00807A9F70E940B
:10032000BD1D0C94872B0C940000FC0124813581A9
:10033000232B21F080819181009721F41092EF0806
:100340008FEE98E0089590E0FC01E459FD4F249170
:100350008A5E9D4FFC018491882399F090E0880F7C
:10036000991FFC01E450FE4FA591B491FC01EE51A0
:10037000FE4F859194918FB7F894EC91E22BEC931A
:100380008FBF0895282F30E0F901E457FE4F949174
:10039000F901E459FD4F44912A5E3D4FF901249142
:1003A000222309F435C0992311F192509231F8F4C7
:1003B000E92FF0E08827E052FE4F8F4F0C948B25F9
:1003C00045024902F20109020D02F701110217026A
:1003D0001B022102250229022F023302F7013702F4
:1003E0003D024102809180008F7780938000E22F50
:1003F000F0E0EE0FFF1FEE51FE4FA591B4918FB7C5
:10040000F894EC91611148C040954E234C938FBFF6
:100410000895809180008F7DE8CF80918000877F54
:10042000E4CF8091B0008F778093B000E0CF8091CF
:10043000B0008F7DF9CF809190008F7780939000EE
:10044000D6CF809190008F7DF9CF80919000877FEB
:10045000F5CF8091A0008F778093A000C8CF8091C6
:10046000A0008F7DF9CF8091A000877FF5CF80918C
:1004700020018F7780932001BACF809120018F7D5A
:10048000F9CF80912001877FF5CF84B58F7784BD28
:10049000AECF84B58F7DFBCF4E2BB8CF3FB7F8944E
:1004A0008091E5069091E606A091E706B091E806F6
:1004B00026B5A89B05C02F3F19F00196A11DB11DBF
:1004C0003FBFBA2FA92F982F8827BC01CD01620FFB
:1004D000711D811D911D42E0660F771F881F991FB6
:1004E0004A95D1F708958F929F92AF92BF92CF9283
:1004F000DF92EF92FF924B015C010E944E026B0172
:100500007C010E944E026C197D098E099F09683E8C
:10051000734081059105A8F321E0821A9108A10892
:10052000B10888EEC80E83E0D81EE11CF11C8114CE
:100530009104A104B10429F7FF90EF90DF90CF90D0
:10054000BF90AF909F908F9008952FB7F8946091CF
:10055000E1067091E2068091E3069091E4062FBFD8
:10056000089508950F931F93CF93DF93EC010E949A
:10057000A502688779878A879B87E881F981028449
:10058000F385E02DCE01199597FF15C00E94A502B5
:10059000088519852A853B85601B710B820B930B9F
:1005A0000C811D812E813F8160177107820793079F
:1005B00020F38FEF9FEFDF91CF911F910F9108955F
:1005C000DB0114964D915C9115976D917C91DC0146
:1005D000ED91FC910280F381E02D1994AF92BF92CE
:1005E000CF92DF92EF92FF920F931F93CF93DF93FF
:1005F0006C017B018B01040F151FEB015E01AE182E
:10060000BF08C017D10759F06991D601ED91FC914F
:100610000190F081E02DC6011995892B79F7C5016C
:10062000DF91CF911F910F91FF90EF90DF90CF90CE
:10063000BF90AF900895FC01538D448D252F30E07D
:10064000842F90E0821B930B541710F0CF960895DF
:1006500001970895FC01918D828D981761F0A28D0C
:10066000AE0FBF2FB11D5D968C91928D9F5F9F73D2
:10067000928F90E008958FEF9FEF0895FC01918D88
:10068000828D981731F0828DE80FF11D858D90E0F5
:1006900008958FEF9FEF0895FC01918D228D892F92
:1006A00090E0805C9F4F821B91098F73992708957A
:1006B00080EF98E00E944C0321E0892B09F420E0B0
:1006C000822F08958DE899E00E944C0321E0892B48
:1006D00009F420E0822F0895FC01A48DA80FB92F02
:1006E000B11DA35ABF4F2C91848D90E001968F735A
:1006F0009927848FA689B7892C93A089B1898C9179
:10070000837080648C93938D848D981306C00288C7
:10071000F389E02D80818F7D80830895EF92FF9291
:100720000F931F93CF93DF93EC0181E0888F9B8D14
:100730008C8D98131AC0E889F989808185FF15C0CE
:100740009FB7F894EE89FF896083E889F9898081F1
:100750008370806480839FBF81E090E0DF91CF91C0
:100760001F910F91FF90EF900895F62E0B8D10E0E2
:100770000F5F1F4F0F731127E02E8C8D8E110CC051
:100780000FB607FCFACFE889F989808185FFF5CF9C
:10079000CE010E946C03F1CFEB8DEC0FFD2FF11D0C
:1007A000E35AFF4FF0829FB7F8940B8FEA89FB89D9
:1007B00080818062CFCFCF93DF93EC01888D882337
:1007C000B9F0AA89BB89E889F9898C9185FD03C0B4
:1007D000808186FD0DC00FB607FCF7CF8C9185FF99
:1007E000F2CF808185FFEDCFCE010E946C03E9CF6F
:1007F000DF91CF91089580E090E0892B29F00E944D
:10080000620381110E94000080E090E0892B29F0B2
:100810000E94580381110E94000080E090E0892B23
:1008200049F080E090E0892B29F00E9400008111BE
:100830000E94000080E090E0892B49F080E090E089
:10084000892B29F00E94000081110C94000008956A
:100850008FB7F8948091D9068FBF089561E0FC01AD
:1008600084810E94C2018091D80681111092D8061D
:1008700008958EBD00000DB407FEFDCF8EB508951E
:100880008FEF0C9439040F931F93CF93DF93EC01F8
:100890000E94A5028B010E9440048F3F69F00E94D4
:1008A000A502601B710B6C177D07A8F380E0DF9138
:1008B000CF911F910F91089581E0F9CF8CBD9DBD1F
:1008C0000895CF93DF93EC018091D806811109C080
:1008D00081E08093D80680912A0A90912B0A0E9489
:1008E0005E0460E08C81DF91CF910C94C2018F9205
:1008F0009F92AF92BF92FF920F931F93CF93DF937C
:10090000EC01F62E49015A018E81882389F08F81EE
:1009100098859C012F5F3F4F38872F83823092400C
:1009200018F40E944004F3CFCE010E942E041E82D0
:10093000CE010E9461048CE291E00E9443048F2D5D
:1009400080640E94390408E110E0D501C401002E42
:1009500004C0B695A795979587950A94D2F70E94FB
:10096000390408501109083F8FEF180771F785E91E
:10097000FF2021F028E087E8F2128FEF0E9439046F
:1009800010E00E9440048A8787FF04C01F3F11F0D7
:100990001F5FF7CFDF91CF911F910F91FF90BF9015
:1009A000AF909F908F900895AF92BF92CF92DF92B9
:1009B000EF92FF920F931F93CF93DF93EC016901A6
:1009C000C801820F931F8130924050F58E81882399
:1009D00079F088819981AA81BB8184179507A60740
:1009E000B70731F48F819885C816D90608F042C040
:1009F000488359836A837B838B85833039F089E010
:100A0000440F551F661F771F8A95D1F79A01AB01D6
:100A100061E1CE010E947704882389F083E08D8311
:100A2000CE010E942E0480E0DF91CF911F910F91A3
:100A3000FF90EF90DF90CF90BF90AF9008950E940D
:100A4000A5025B010E9440048A878F3F69F40E94DF
:100A5000A5026A197B096D327140A0F38FE08D8386
:100A6000CE010E942E04DCCF8E3F89F418861F82AF
:100A700081E08E838F8198858C159D0550F40E94AE
:100A800040048F819885019698878F83F3CF8DE0FE
:100A9000E6CF6701E00EF11E0E944004F60181934B
:100AA0006F01EE15FF05C1F78F819885080F191F9B
:100AB00018870F838985882319F001151240A0F04B
:100AC0008E81882389F08F8198859C012F5F3F4F0D
:100AD00038872F838230924018F40E944004F3CF6D
:100AE000CE010E942E041E8281E09ECFCF92DF9223
:100AF000EF92FF920F93CF93DF93EC01690182E1B4
:100B0000411551056105710599F08B85833039F0E8
:100B100089E0440F551F661F771F8A95D1F79A0108
:100B2000AB0168E1CE010E947704882319F084E0CC
:100B30008D832DC08EEF0E94390476018EEFD81A76
:100B4000F70181917F010E943904EC14FD04C1F783
:100B50008FEF0E9439048FEF0E9439040E944004F5
:100B60008A878F71853071F4011116C0CE010E9401
:100B70002E0481E0DF91CF910F91FF90EF90DF90F5
:100B8000CF90089581E18D83CE010E942E04CE0185
:100B90000E942E0480E0EECF88E592E00E9443049C
:100BA000811102C085E1C4CF20E030E0A9016DE0F1
:100BB000CE010E947704882311F084E1B9CF0E940E
:100BC00040048111FACFD2CF0F934091DB065091B0
:100BD000DC066091DD067091DE0641155105610568
:100BE000710599F0082F2DEE36E08091ED08909177
:100BF000EE080E947605882349F01092DB061092D9
:100C0000DC061092DD061092DE0681E00F91089559
:100C10000F93CF93C82F8091DA06811105C0C1E0F0
:100C20008C2FCF910F9108954091000250910102B5
:100C300060910202709103020C2F2DEE36E080913C
:100C4000ED089091EE080E947605811102C0C0E087
:100C5000E7CFCC2321F381E00E94E4058823B9F398
:100C60001092DA06DDCF8F929F92AF92BF92EF92F1
:100C7000FF920F931F93CF934B015C01C42F809180
:100C8000000290910102A0910202B0910302881526
:100C90009905AA05BB0551F181E00E940806811162
:100CA0000BC080E0CF911F910F91FF90EF90BF900C
:100CB000AF909F908F9008958DEEE82E86E0F82EED
:100CC00000E012E030E020E0B501A4018091ED08E1
:100CD0009091EE080E94D404882319F380920002B8
:100CE00090920102A0920202B09203024091DA06B1
:100CF0004C2B4093DA0681E0D5CF8F929F92AF9232
:100D0000BF92CF92DF92EF92FF92CF932CE23AE024
:100D10003093EE082093ED08882309F46DC040E07D
:100D200060E070E0CB010E94330681110BC080E0CF
:100D3000CF91FF90EF90DF90CF90BF90AF909F90BA
:100D40008F9008958091AB088F7789F78091B708CD
:100D50009091B808A091B908B091BA08843691056D
:100D6000A105B10520F3C090B308D090B408E0907D
:100D7000B508F090B608C114D104E104F104B9F249
:100D800040E0C701B6010E943306882381F28091BA
:100D9000F8069091F9068115924049F6A091FD065A
:100DA000AA2329F26091FB067091FC06611571057A
:100DB00009F4BDCF2091FA06222309F4B8CFA093FD
:100DC0004A0A20933C0A90E080E030E0E1E0F0E065
:100DD000C82FAF01082E02C0440F551F0A94E2F736
:100DE0002417350769F041E0480F019689309105D5
:100DF00079F74093450A9BCFC12CD12C7601C0CF07
:100E00008093450A209103073091040750E040E0A9
:100E10002115310541F420911107309112074091BD
:100E200013075091140720933D0A30933E0A4093D4
:100E30003F0A5093400A46015701860E971EA11C97
:100E4000B11C80924B0A90924C0AA0924D0AB0922B
:100E50004E0AE091FE06F091FF06F093510AE093EE
:100E6000500AB0E00E947125DC01CB01880D991D6C
:100E7000AA1DBB1D8093520A9093530AA093540A53
:100E8000B093550A25E0EE0FFF1F2A95E1F7E150D8
:100E9000FE4FEF2FFF27E6958E0F9F1FA11DB11D5F
:100EA0008093460A9093470AA093480AB093490A50
:100EB0008090000790900107B12CA12C811491041F
:100EC00041F480900D0790900E07A0900F07B0900E
:100ED0001007C81AD90AEA0AFB0AC80CD91CEA1C6E
:100EE000FB1C04C0F694E794D794C794CA95D2F734
:100EF000C092410AD092420AE092430AF092440A18
:100F000085EFC8168FE0D806E104F10428F48CE0E0
:100F100080934F0A81E00CCF80E125EFC2162FEFBE
:100F2000D206E104F104A0F38091190790911A0709
:100F3000A0911B07B0911C078093520A9093530A0B
:100F4000A093540AB093550A80E2E2CF4F925F9289
:100F50006F927F928F929F92AF92BF92CF92DF92C9
:100F6000EF92FF920F931F93CF93DF93EC014230E8
:100F700051056105710590F480E0DF91CF911F91DB
:100F80000F91FF90EF90DF90CF90BF90AF909F9028
:100F90008F907F906F905F904F90089589859A858C
:100FA000AB85BC850196A11DB11D84179507A607C9
:100FB000B70710F3CB88DC88ED88FE888F898031F5
:100FC00009F042C0BB27A72F962F852F4801590152
:100FD0002A013B01C80ED91EEA1EFB1E80910002A9
:100FE00090910102A0910202B0910302C816D906A5
:100FF000EA06FB0699F58F898031C1F5B301A2019C
:10100000552766277727440F551F4351594FFA013B
:10101000918280828091DA0681608093DA068A89E3
:10102000823080F08D819E81AF81B8858C0D9D1DB1
:10103000AE1DBF1D8093DB069093DC06A093DD06FA
:10104000B093DE0681E099CFDB01CA01E7E0B695F7
:10105000A79597958795EA95D1F7B8CF40E0C70156
:10106000B6010E9433068111C6CF86CFB301A2011B
:101070004F77552766277727440F551F440F551F75
:101080004351594FFA0180829182A282B382C2CF2A
:101090008F929F92AF92BF92CF92DF92EF92FF9288
:1010A0000F931F93CF93DF93FC0181859285A385D6
:1010B000B4850196A11DB11D84179507A607B70732
:1010C00070F480E0DF91CF911F910F91FF90EF902E
:1010D000DF90CF90BF90AF909F908F9008958388BE
:1010E0009488A588B6888789803189F5BB27A72F82
:1010F000962F852FE9016A017B018F01BC01CD018B
:10110000680D791D8A1D9B1D809000029090010240
:10111000A0900202B090030286169706A806B906B0
:1011200001F5F8018789803111F5DD24EE24FF24D3
:10113000F601EE0FFF1FE351F94F80819181B0E07E
:10114000A0E088839983AA83BB8381E0BBCFDB01C6
:10115000CA01C7E0B695A79597958795CA95D1F727
:10116000C9CF40E00E9433068111DBCFAACFE894BB
:10117000C7F8DD24EE24FF24F601EE0FFF1FEE0F6B
:10118000FF1FE351F94F80819181A281B381BF702C
:10119000D8CF4F925F926F927F92AF92BF92CF92D1
:1011A000DF92EF92FF920F931F93CF93DF9300D0C4
:1011B0001F92CDB7DEB78C0149835A836B837C8342
:1011C0005901C12CD12C7601412C82E0582E612C82
:1011D000712C49815A816B817C819E012F5F3F4F29
:1011E000C8010E944808882339F1F8018585A301C8
:1011F000920104C0220F331F441F551F8A95D2F756
:10120000DA01C901C80ED91EEA1EFB1E49815A81A6
:101210006B817C818789803111F188EF9FEFAFEF7F
:10122000BFE0481759076A077B0798F2F501C082AB
:10123000D182E282F38281E00F900F900F900F90A5
:10124000DF91CF911F910F91FF90EF90DF90CF90A2
:10125000BF90AF907F906F905F904F90089588EF10
:101260009FEFA0E0B0E0DDCFCF93DF93FC012581BD
:10127000222321F080E0DF91CF910895EC0180914D
:101280004F0A803159F582E08583178A108E118EBE
:10129000128E8091500A9091510AB0E0A0E025E0B2
:1012A000880F991FAA1FBB1F2A95D1F7838B948B98
:1012B000A58BB68B88E39AE09C8F8B8F81E08C8323
:1012C0001E821F82188619861A861B861C861D861A
:1012D0001E861F86188A198A1A8ACDCF803251F647
:1012E00083E085834091520A5091530A6091540AD9
:1012F0007091550A478B508F618F728F9F012D5EC1
:101300003F4F88E39AE00E94C9088111D3CFB2CF42
:101310008F929F92AF92BF92CF92DF92EF92FF9205
:101320000F931F93CF93DF93EC018D8181110EC03A
:1013300080E0DF91CF911F910F91FF90EF90DF90B0
:10134000CF90BF90AF909F908F9008950B891C898C
:101350002D893E89041715072607370748F34A01E8
:101360005B01823031F48A869B86AC86BD8681E043
:10137000E0CF81149104A104B10449F41E821F82BC
:10138000188619861A861B861C861D86F0CF0A854C
:101390001B852C853D85EB8DFC8D858590E0099620
:1013A000B901A8014150510961097109082E04C011
:1013B00076956795579547950A94D2F7750164011C
:1013C000E1E0CE1AD108E108F10804C0F694E794F0
:1013D000D794C7948A95D2F7C416D506E606F706C1
:1013E00020F0012B022B032B11F58F89988DA98DED
:1013F000BA8D8E839F83A887B9878E010A5F1F4F9E
:10140000C114D104E104F10409F4ADCF4E815F8130
:101410006885798598018B8D9C8D0E94480891E0A4
:10142000C91AD108E108F1088111EACF81CFC41AA5
:10143000D50AE60AF70AE1CF3F924F925F926F9288
:101440007F928F929F92AF92BF92CF92DF92EF9254
:10145000FF920F931F93CF93DF93CDB7DEB72C97F7
:101460000FB6F894DEBF0FBECDBF5C01DC015B960A
:101470008D909C905C9716964D905D906D907C90B1
:101480001997411451046104710409F468C0BFEF55
:101490004B1A5B0A6B0A7B0A312CF4018185928519
:1014A000A385B4859C01AD012F5F3F4F4F4F5F4F28
:1014B00029873A874B875C87730162011D821E82F0
:1014C0001F821886F40181859285A385B4852D81BC
:1014D0003E814F815885281739074A075B0708F076
:1014E00056C089859A85AB85BC858C159D05AE0552
:1014F000BF0550F482E0C82ED12CE12CF12C92E0F3
:10150000492E512C612C712C9E012F5F3F4FB7014A
:10151000A601C4010E9448088823C9F189819A81E3
:10152000AB81BC81892B8A2B8B2B09F126013701DA
:101530009FEF491A590A690A790A2D813E814F8124
:1015400058852F5F3F4F4F4F5F4F2D833E834F8313
:1015500058873FEFC31AD30AE30AF30AB3CFF40163
:1015600040805180628073803324339496CFC414BA
:10157000D504E604F70409F70FEF1FEF2FEF3FE064
:10158000B701A601C4010E94A607811119C080E01D
:101590002C960FB6F894DEBF0FBECDBFDF91CF9172
:1015A0001F910F91FF90EF90DF90CF90BF90AF9081
:1015B0009F908F907F906F905F904F903F90089595
:1015C000D50116964D915D916D917C9119974115BC
:1015D00051056105710539F097018601C4010E942A
:1015E000A6078823A1F2D5011696CD92DD92ED9241
:1015F000FC921997332051F0D701C6010196A11D25
:10160000B11DF40180839183A283B383F50187899F
:10161000908DA18DB28D892B8A2B8B2B39F48481EF
:10162000C78AD08EE18EF28E80688483F501848132
:101630008062848381E0ACCF1F93CF93DF93FC0162
:1016400025812223D1F1162FEC01848187FF2AC046
:10165000668577858089918941E00E9433068823D9
:1016600061F1EA8980E2E89FF0011124E351F94F2A
:10167000309719F18D81823040F48B899C89AD8936
:10168000BE89848F958FA68FB78F8F89988D938F02
:10169000828F8F89988DA98DBA8DB58BA48B8C8103
:1016A0008F778C83111103C08C818F7E8C83812F67
:1016B000DF91CF911F910C94080680E0DF91CF91CC
:1016C0001F910895FF920F931F93CF93DF93EC0127
:1016D0008D81813041F090E080E0DF91CF911F91CA
:1016E0000F91FF9008958C8181FFF5CF82FD1BC083
:1016F0000091ED081091EE08C8010E9461040E945B
:101700004004F82EC8010E942E048FEFF812E3CF98
:101710008C8185FF1BC060E0CE010E941C0B8C8178
:101720008F7D8C83D8CF4B895C896D897E898A8532
:101730009B85AC85BD8584179507A607B707C1F2C1
:10174000CE010E9488098111D3CFC5CF4091DB061D
:101750005091DC066091DD067091DE06452B462B2C
:10176000472B21F080E00E94E405B5CF80618C8397
:101770002A853B85317080E092E0821B930BADCFD0
:10178000CF93DF93EC0161E00E941C0B882311F0E2
:101790001D8281E0DF91CF9108952F923F924F9269
:1017A0005F926F927F928F929F92AF92BF92CF92F1
:1017B000DF92EF92FF920F931F93CF93DF9300D0AE
:1017C0001F921F92CDB7DEB77C015B01342E5D8383
:1017D000DC0115968C911597813009F0CEC01496D6
:1017E0002C9021FECAC022FCB4C0C32CDD80229400
:1017F0007FE027222094B22DB1702B2ED7011A96AC
:101800004D915D916D917C911D97C114D10409F4A6
:1018100028C15B968D919C915C97FC0174807A94B1
:101820008A019B0169E036952795179507956A957A
:10183000D1F770228A011170711020C001151105B5
:10184000E9F416964D915D916D917C911997411532
:1018500051056105710509F099C057968D919D91CB
:101860000D90BC91A02D0097A105B10509F0B0C065
:10187000C7010E941C0A882309F47FC080E092E01F
:10188000801B910B46018C159D0508F44C01D70176
:101890005B964D915C915C9716968D919D910D9004
:1018A000BC91A02D0297A109B109FA01258504C0B8
:1018B000880F991FAA1FBB1F2A95D2F74685578507
:1018C00060897189840F951FA61FB71F9C01AD0108
:1018D000270D311D411D511D29013A01811432E0AE
:1018E000930609F07BC08091000290910102A091C3
:1018F0000202B091030284159505A605B70559F4B7
:101900008FEF9FEFDC018093000290930102A09380
:101910000202B0930302022D9501B301A20180914E
:10192000ED089091EE080E947605882331F19EEF34
:10193000B91AC818D908F70182859385A485B58599
:10194000880D991DA11DB11D82879387A487B58736
:1019500055CFF701438954896589768982859385B6
:10196000A485B585481759076A077B0709F43DCF59
:10197000C7010E948809811138CF81E090E0D7012A
:1019800013969C938E93129780E007C09E012F5F61
:101990003F4F0E944808811102C090E079C08981C0
:1019A0009A81AB81BC81F701238D348DF9012789A0
:1019B00048EF5FEF60E070E0203121F048EF5FEF2B
:1019C0006FEF7FE084179507A607B70708F050CFA1
:1019D000F70186839783A087B18750CF0115110542
:1019E00099F5D7011A964D915D916D917C911D9756
:1019F00053968D919D910D90BC91A02D481759073C
:101A00006A077B0708F181E00E940806882309F431
:101A1000B4CF409200025092010260920202709292
:101A200003028091DA0681608093DA06C80183514F
:101A3000994FD5019C01280D391DFC012E173F0738
:101A400059F04D914193FACF41E0C301B2010E9498
:101A500033068111EBCF91CF281B390BA20EB31E99
:101A600068CFF70183899489A589B689841795077A
:101A7000A607B70738F48481438B548B658B768B2C
:101A800080688483F701848183FD1AC0832D9D8142
:101A90000F900F900F900F900F90DF91CF911F91AB
:101AA0000F91FF90EF90DF90CF90BF90AF909F90FD
:101AB0008F907F906F905F904F903F902F90089500
:101AC00061E0C7010E941C0B882309F456CFDECFCA
:101AD000CF93DF931F92CDB7DEB7698341E050E02B
:101AE000BE016F5F7F4F0E94CD0B0F90DF91CF91B2
:101AF0000895FC01DB0112968D919C9113979383BD
:101B000082838FE792E09183808314968C9114975F
:101B1000848315968C911597858316964D915D91CA
:101B20006D917C91199746835783608771871A96C8
:101B30004D915D916D917C911D974287538764878C
:101B400075871E964D915D916D917C915197468759
:101B50005787608B718B52968C915297828B5396DC
:101B60004D915D916D917C915697438B548B658B14
:101B7000768B57964D915D916D917C915A97478BDD
:101B8000508F618F728F5B968D919C91948F838F14
:101B90000895FC01818D928D009719F061E00C94FD
:101BA0001C0B0895DC015996ED91FC913097B9F02A
:101BB00083899489A589B68942855385648575850D
:101BC000841B950BA60BB70B811520E89207A10586
:101BD000B10538F08FEF9FE7A0E0B0E0089590E006
:101BE00080E00895DC0159968D919C91009739F021
:101BF000DC01ED91FC910480F581E02D199490E0D9
:101C000080E00895CF93DF93EC01E98DFA8D309752
:101C100049F481E090E09B838A8390E080E0DF914B
:101C2000CF91089513821282898D9A8D0E94CD0BD7
:101C3000E98DFA8D22813381232B59F7F0CFCF9391
:101C4000DF931F92CDB7DEB76983DC01ED91FC9184
:101C50000280F381E02D41E050E0BE016F5F7F4FD5
:101C600019950F90DF91CF9108952F923F924F9247
:101C70005F926F927F928F929F92AF92BF92CF921C
:101C8000DF92EF92FF920F931F93CF93DF9300D0D9
:101C9000CDB7DEB7FC018581811118C08FEF9FEFB2
:101CA0000F900F900F90DF91CF911F910F91FF90A8
:101CB000EF90DF90CF90BF90AF909F908F907F90EC
:101CC0006F905F904F903F902F900895848180FF98
:101CD000E5CF438954896589768982859385A48572
:101CE000B585312C212C481759076A077B0719F055
:101CF00022242394312C6F012101CE0101963C0155
:101D0000DF011696BB83AA834114510409F4C5C0B0
:101D1000F60142855385648575854A01F1E09F226D
:101D2000D6015B968D919C915C978A019B01E9E0BD
:101D30003695279517950795EA95D1F71596EC9165
:101D4000E230E9F5FC01628D738D848D958D600F15
:101D5000711F821F931FA12C22E0B22EA818B90870
:101D60004A145B0408F45201F601248126FD04C0E4
:101D7000A114F2E0BF0671F400910002109101027B
:101D8000209102023091030206171707280739072E
:101D900009F05EC040E00E943306882309F47ECF3C
:101DA000C4018351994FD3019C012A0D3B1DFC01B5
:101DB0002E173F0709F46CC041914D93F9CFDC0118
:101DC0001496BC90BA94B0228114910479F4B110A5
:101DD0000DC0452B462B472B69F5F6018789908D61
:101DE000A18DB28D86839783A087B187D6015B963C
:101DF000ED91FC915C9716966D917D918D919C91E2
:101E000019976250710981099109258504C0660FEF
:101E1000771F881F991F2A95D2F706851785208975
:101E20003189600F711F821F931F6B0D711D811D02
:101E3000911D91CFD60116964D915D916D917C913A
:101E400019972A813B810E9448088111CFCF26CF64
:101E5000730185019401AB01BC018091ED08909163
:101E6000EE080E94D404882309F418CF6A0C7B1C66
:101E7000F60182859385A485B5858A0D9B1DA11DDC
:101E8000B11D82879387A487B5874A185B083CCF2A
:101E9000281B390B620E731EEBCF2A94232809F0FE
:101EA000FDCE898190E0FCCEFC01818D928D009762
:101EB00011F00C94350E8FEF9FEF08950F931F9341
:101EC000CF93DF93EC01898D9A8D10E000E00097AD
:101ED00099F00E94350E8C010F3F100769F0898D33
:101EE0009A8DFC0142855385648575854150510961
:101EF000610971090E948809C801DF91CF911F9182
:101F00000F910895FB01DC018D919C91009761F088
:101F1000608171816115710539F0448155810E949C
:101F2000DC2721E0892B09F020E0822F0895FB01B6
:101F300001900020E9F73197AF01461B570BDC01F8
:101F4000ED91FC910280F381E02D19948F929F9284
:101F5000AF92BF920F931F93CF93DF93CDB7DEB7AE
:101F6000A1970FB6F894DEBF0FBECDBF19A24230C5
:101F700008F44AE08E010F5D1F4F842E912CB12C86
:101F8000A12CA50194010E944F25E62FB901CA0199
:101F9000EA3004F5E05DD801EE938D01232B242B6C
:101FA000252B79F790E080E0109729F0BD018DE8AE
:101FB00099E00E94970FA1960FB6F894DEBF0FBE6E
:101FC000CDBFDF91CF911F910F91BF90AF909F90A8
:101FD0008F900895E95CDFCFCF93DF93BC018DE84C
:101FE00099E00E94970FEC0169E972E08DE899E0B1
:101FF0000E94970F8C0F9D1FDF91CF9108950F9333
:102000001F93CF93DF93EC010E94E0028C0169E9FA
:1020100072E0CE010E94970F800F911FDF91CF9148
:102020001F910F910895CF92DF92EF92FF921F932D
:10203000CF93DF93EC0180E2689FF0011124E3511C
:10204000F94F9385917161F0842F827449F080E09B
:10205000DF91CF911F91FF90EF90DF90CF90089587
:10206000142F6A8B8091000290910102A0910202CC
:10207000B09103028E879F87A88BB98BC488D588BF
:10208000F12CE12C7601DD24CC24CF8AD88EE98E88
:10209000FA8E828D938DB0E0A0E0AC01BD014C2999
:1020A0005D296E297F294F8B588F698F7A8F8385A1
:1020B0008871B1F4848D958DA68DB78D8B8B9C8B9B
:1020C000AD8BBE8B81E08D831F701C831E821F82AF
:1020D000188619861A861B861C861D8681E0B8CF55
:1020E000803109F0B4CF9E012D5E3F4F8B8D9C8DCA
:1020F0000E94C908882309F4AACF84E0E4CFAF92F4
:10210000BF92CF92DF92EF92FF920F931F93CF93E4
:10211000DF93DC01CD90DC901197C114D10439F02C
:102120001496CD91DC918C017601209761F4DF91BA
:10213000CF911F910F91FF90EF90DF90CF90BF90C4
:10214000AF90089575015701BFEFAB1ABB0AF701B5
:102150008081082E000C990B0E945B22892B91F73D
:102160002197CC0DDD1D8881082E000C990B0E9453
:102170005B22892B29F0CE15DF0510F02197F3CFD4
:10218000AE014F5F5F4F4E195F09D80115965C9302
:102190004E931497CE14DF0420F4B701C6010E94B9
:1021A000A627D801ED91FC91119714968D919C91E1
:1021B000E80FF91F1082BBCFCF93DF93DC01149699
:1021C0002D913C911597232B79F0FB01CD91DC915A
:1021D00060817181CE010E94F927009729F08C1B44
:1021E0009D0BDF91CF9108958FEF9FEFFACF2F9244
:1021F0003F924F925F926F927F928F929F92AF9297
:10220000BF92CF92DF92EF92FF920F931F93CF93E3
:10221000DF9300D01F92CDB7DEB7FC01448055801C
:102220004114510409F412C1FB01648075806114EA
:10223000710409F40BC17A016B019C838B83FA0151
:10224000A480B580A618B708FC0100811181A114F3
:10225000B104B9F4F60160817181C8010E94F927C7
:102260008C01009709F4F2C0F7016081718144810B
:1022700055810E94A627F70184819581080F191FB7
:10228000E9CFB7FC10C0FB01208031804201C801BA
:10229000B1010E94F927009709F44EC0860D971DE1
:1022A0008A0C9B1CF5CF3801F60160817181C80151
:1022B0000E94F9272C01009729F14C01801A910AFC
:1022C000A401B801C3010E94A627680C791CF7017C
:1022D0006081718144815581C3010E94A627F70165
:1022E00084809580680C791CF60104811581040DA9
:1022F000151DEB81FC81848195818A0D9B1D958341
:102300008483D2CFB801C3010F900F900F900F902C
:10231000DF91CF911F910F91FF90EF90DF90CF90C1
:10232000BF90AF909F908F907F906F905F904F90F5
:102330003F902F900C94D5274814590409F486C077
:10234000EB81FC81828193818815990578F4B40131
:102350006F5F7F4FC8010E94B826009709F476C0CE
:10236000EB81FC819183808393828282EB81FC816B
:10237000048115810150110917FD68C03801F6016B
:10238000248035802114310409F460C0EB81FC8184
:10239000848095808114910409F458C082149304B8
:1023A00008F454C00815190520F03401F1E06F1A43
:1023B0007108EB81FC8140805180C2010FEF1FEF5B
:1023C0009201260D371D3A832983E981FA81E817A6
:1023D000F90788F0F601608171810E94F927009762
:1023E00051F09C01241935096216730608F498010E
:1023F00001968901EACF17FD29C0200E311EC201C6
:10240000820D931DA40142195309BC018A0D9B1D25
:102410000E94AF27EB81FC81848195818A0D9B1DF1
:102420009583848320813181820F931FFC01108268
:10243000EB81FC8180819181F70160817181448110
:102440005581800F911F0E94A62794CF0F900F9067
:102450000F900F90DF91CF911F910F91FF90EF9010
:10246000DF90CF90BF90AF909F908F907F906F90B4
:102470005F904F903F902F9008950F931F93CF93AD
:10248000DF93EC0188819981009759F02A813B8183
:102490002617370730F081E0DF91CF911F910F9120
:1024A00008958B016F5F7F4F0E94B826009759F007
:1024B000998388831B830A832C813D81232B59F7C1
:1024C000FC011082E8CF80E0E7CFEF92FF920F93FC
:1024D0001F93CF93DF936115710541F480E0DF9185
:1024E000CF911F910F91FF90EF90089541155105E5
:1024F000B1F07B01EC010C811D81040F151FB801A7
:102500000E943D12882351F3288139818C819D815D
:10251000B701820F931F0E94D5271D830C8381E092
:10252000DECFCF93DF931F921F92CDB7DEB76983C3
:102530001A8241E050E0BE016F5F7F4F0E9465123A
:102540000F900F90DF91CF9108950F931F93CF932A
:10255000DF938C01EB01FC01808191810097E1F018
:102560006881798161157105A9F0428153812C81BF
:102570003D814217530770F00E94D5278C819D81C1
:10258000F801958384831D821C82DF91CF911F9176
:102590000F9108950E942F2688819981F8019183D7
:1025A00080838A819B81938382838C819D819583A3
:1025B0008483198218821B821A82E5CFCF93DF931E
:1025C000EC0188819981009711F00E942F261982D1
:1025D00018821D821C821B821A82DF91CF9108957E
:1025E000CF93DF93EC01FB0101900020E9F73197D5
:1025F000AF01461B570B0E946512811103C0CE012B
:102600000E94DE12CE01DF91CF910895CF93DF9328
:10261000EC01FB0144815581608171810E9465124A
:10262000811103C0CE010E94DE12CE01DF91CF9155
:102630000895EF92FF920F931F93CF93DF93EC01D6
:102640007B018A01BA010E943D1281110BC0CE01AB
:102650000E94DE12CE01DF91CF911F910F91FF906A
:10266000EF9008951D830C83B701888199810E94A2
:10267000D527F0CFEF92FF920F931F93CF93DF9365
:10268000CDB7DEB7A1970FB6F894DEBF0FBECDBFB2
:102690008C01CB01BA01F8011182108213821282DF
:1026A000158214822AE0AE014F5F5F4F7A010E94CB
:1026B0006422F70101900020E9F73197AF014E192C
:1026C0005F09B701C8010E941913A1960FB6F894CB
:1026D000DEBF0FBECDBFDF91CF911F910F91FF9055
:1026E000EF900895FB01DC0111961C921E92139647
:1026F0001C921E92129715961C921E921497861782
:10270000970749F0608171816115710521F044815D
:1027100055810C9419130895FC01118210821382C3
:10272000128215821482FB0101900020E9F7319793
:10273000AF01461B570B0C941913AF92BF92CF9267
:10274000DF92EF92FF920F931F93CF93DF937C0161
:102750006B015A0189012417350720F48B2D59018B
:10276000042F182F6BE972E0C7010E948C13D60169
:102770001496CD91DC91AC16BD0620F50C171D0703
:1027800008F4E801D601ED91FC911197EC0FFD1FC3
:10279000108110826D917C916A0D7B1D6115710510
:1027A000E9F0FB0101900020E9F73197AF01461BEA
:1027B000570BC7010E941913F60180819181C80F40
:1027C000D91F1883C701DF91CF911F910F91FF90FF
:1027D000EF90DF90CF90BF90AF900895C7010E9417
:1027E000DE12EACFFC0180819181009711F00C94F8
:1027F0002F260895CF92DF92EF92FF920F931F93AF
:10280000CF93DF93CDB7DEB72C970FB6F894DEBF2A
:102810000FBECDBFBC0180EF98E00E94FF0F0E9469
:10282000A5026B017C016BE972E0CE0107960E9464
:102830008C130E94A5026C197D098E099F09603DC9
:1028400077408105910580F480EF98E00E944C0369
:10285000892B79F380EF98E00E942A03682FCE013C
:1028600007960E949112F0CF6CE972E0CE010196BA
:102870000E948C13BE01695F7F4FCE0101960E94BA
:102880000613BC018DE899E00E94FF0FCE0101966E
:102890000E94F2136AEA72E0CE0101960E948C1344
:1028A000BE016F5F7F4FCE0107960E94DC108C0146
:1028B000CE0101960E94F2130F3F1F4FC9F48DEA1B
:1028C00092E00E94EC0F10E0CE0107960E94F213F6
:1028D000812F2C960FB6F894DEBF0FBECDBFDF91CF
:1028E000CF911F910F91FF90EF90DF90CF900895BF
:1028F00011E0EACF8F929F92AF92BF92CF92DF9278
:10290000EF92FF920F931F93CF93DF9300D000D0ED
:10291000CDB7DEB78C0149015A0180EF98E00E94E3
:10292000FF0F0E94A5026B017C016BE972E0C801F8
:102930000E948C130E94A5026C197D098E099F09C3
:10294000681579058A059B0578F480EF98E00E9468
:102950004C03892B79F380EF98E00E942A03682FBB
:10296000C8010E949112F1CF6CE972E0CE0101968C
:102970000E948C13B801CE0101960E940613BC017F
:102980008DE899E00E94FF0FCE0101960E94F2139C
:10299000C80126960FB6F894DEBF0FBECDBFDF91FB
:1029A000CF911F910F91FF90EF90DF90CF90BF904C
:1029B000AF909F908F900895CF93DF93EC01898D16
:1029C0009A8D009741F00E94C00B898D9A8D0E94CC
:1029D0002F261A8E198EDF91CF9108953F924F9234
:1029E0005F926F927F928F929F92AF92BF92CF929F
:1029F000DF92EF92FF920F931F93CF93DF9300D05C
:102A000000D000D01F921F92CDB7DEB77C01FE012F
:102A10003196CE010C966F0130E23193E817F90739
:102A2000E1F7DA0130E087E09D91B92E992309F4AE
:102A30003CC09E32F1F48A30C9F480E02B960FB688
:102A4000F894DEBF0FBECDBFDF91CF911F910F91E4
:102A5000FF90EF90DF90CF90BF90AF909F908F90BE
:102A60007F906F905F904F903F90089538E08AE09C
:102A7000DBCFECE7F1E04491442321F0319694134D
:102A8000FACFDBCF8317C8F24FED490F4E35A8F6CA
:102A90004FE9490F4A3118F440EEB42EB90EF60151
:102AA000E30FF11DB0823F5FBFCF8981803229F2F1
:102AB000322E8B01DB015B968D919C915C97F70127
:102AC000948F838F16961D921D921D921C921997BA
:102AD000FB011286138614861586F801828593857C
:102AE000A485B585438954896589768984179507B6
:102AF000A607B70708F04DC025E0B695A7959795AE
:102B000087952A95D1F7F82FFF70AF2ED80115962B
:102B10008C91823008F491CFC8010E94350E97FD48
:102B20008CCFF80182859385A485B5854F96A11D2C
:102B3000B11D82879387A487B587F0E2AF9EB0016D
:102B400011246351794F6115710509F476CFDB01CA
:102B50008C91882341F0853E09F062C0BB2029F0AA
:102B6000BB24B394BACFB1100EC0F701A28A8091F2
:102B7000000290910102A0910202B09103028687A7
:102B80009787A08BB18BDB018C918111E9CFBB249E
:102B9000B394832D8271823109F04FCFBB2009F4A9
:102BA0004DC0F701668577858089918941E00E9453
:102BB0003306882309F441CFD70152968C91B0E2B5
:102BC0008B9FC00111248351994F009709F435CF91
:102BD000FC013A9626E1DF011D922A95E9F72BE0E8
:102BE000F601DC0101900D922A95E1F721E238E22D
:102BF000FC01318B208B40E058E057874687338BB0
:102C0000228B318F208F578B468B81E00E940806E4
:102C1000882309F412CF432DD70152966C910AC034
:102C20004BE050E0C6010E949927892B09F055CF4F
:102C3000432D6A2DC7010E94131000CFF801858132
:102C4000823009F4FACEC8010E941C0A882309F4D4
:102C5000F4CED8015B96ED91FC915C9716968D9021
:102C60009D90AD90BC901997B2E08B1A9108A10885
:102C7000B108858504C0880C991CAA1CBB1C8A95C8
:102C8000D2F786859785A089B189880E991EAA1EDC
:102C9000BB1E848124013501480E511C611C711C2E
:102CA00084149504A604B70409F1E1E04E1A510812
:102CB0006108710881E00E940806882309F4BDCEEE
:102CC000EDEEF6E011928DEE98E08E179F07D1F7AA
:102CD000409200025092010260920202709203023E
:102CE0008091DA0681608093DA06DACFD8015B96AC
:102CF000ED91FC91258580E092E0A0E0B0E004C079
:102D0000880F991FAA1FBB1F2A95D2F7F801438984
:102D1000548965897689840F951FA61FB71F838BF9
:102D2000948BA58BB68BD70152961C928DEE96E0B4
:102D30004FCFEF92FF920F931F93CF93DF93EC014E
:102D40007B018A011B821A8288EE93E0A0E0B0E04A
:102D50008C839D83AE83BF838BE892E099838883C5
:102D60008DE190E00E9493259A8F898F009779F0EA
:102D70002DE1F701DC0101900D922A95E1F74CE07D
:102D800050E0B801CE010C960E94EA27188EDF9120
:102D9000CF911F910F91FF90EF9008952F923F9246
:102DA0004F925F926F927F928F929F92AF92BF925B
:102DB000CF92DF92EF92FF920F931F93CF93DF9307
:102DC000CDB7DEB7C556D1090FB6F894DEBF0FBE3A
:102DD000CDBF6C013B01A6964FAFA69719A218A2D2
:102DE0008FE792E09F8F8E8F1BA21C821B829A839B
:102DF00089831E824E018EE1880E911CC4010E94BF
:102E000034098301FE0131967F0154012F016FE2E5
:102E100070E0C8010E94C127009709F45AC0F80168
:102E200020812F3269F40F5F1F4F9E2D8F2D75016A
:102E3000A92EB82E9A2D8B2D5701E92EF82EE7CF0B
:102E4000801B8D3008F08CE0282E312CA101B801B8
:102E5000CE01885A9F4F0E94EA27E8E5F0E0EC0F88
:102E6000FD1FE20DF31D1082C7010E94C00BF70188
:102E700085818823F1F01EAE1DAE8FE792E09CAFF6
:102E80008BAF21961FAE219710E000E0060D171DB5
:102E9000F8018081811125C0BE01655C7F4FC201B0
:102EA0000E94790D47EC52E0B201C6010E949916CA
:102EB00036C021E0AE01485A5F4FB501C7010E94FC
:102EC000EE148823C1F2020D131DC5010E94C00B30
:102ED000B1CF06191709B501CE01CB960E94790D25
:102EE000D5CF19A218A28FE792E09F8F8E8F1BA2D9
:102EF00021968FAD219781112DC0F6011382128288
:102F000088EE93E0A0E0B0E084839583A683B78346
:102F10008BE892E091838083128E118E1486C60115
:102F2000CB59DF4F0FB6F894DEBF0FBECDBFDF9198
:102F3000CF911F910F91FF90EF90DF90CF90BF90B6
:102F4000AF909F908F907F906F905F904F903F9049
:102F50002F900895A6962FADA697A801BE01655C97
:102F60007F4FC4010E94EE14882339F2CE01CB9624
:102F70000E94C00BA6968FADA6978670863039F456
:102F800049A95AA96BA97CA9C4010E948809B40166
:102F9000C2010E94790DA80187CF2F923F924F92D4
:102FA0005F926F927F928F929F92AF92BF92CF92D9
:102FB000DF92EF92FF920F931F93CF93DF93CDB7E2
:102FC000DEB7C456D1090FB6F894DEBF0FBECDBF31
:102FD0007C0189EC92E00E94EC0F6EED72E0CE0174
:102FE0004C960E948C1328EE33E040E050E0BE0186
:102FF000645E7F4FCE0101960E947A14CE01019645
:103000000E94F213CE014C960E94F2138AEE92E0D7
:103010000E94EC0F68E272E0CE0101960E948C13D0
:1030200069EF72E0CE014C960E948C13BE016F5F77
:103030007F4FCE014C960E9406136BE073E00E9416
:10304000F012BC01CE018E5A9F4F0E947213CE0126
:103050004C960E94F213CE0101960E94F213BE011B
:103060006E5A7F4FCE014C960E94721328EE33E0C9
:1030700040E050E0BE01645E7F4FCE0101960E94A9
:103080007A14CE0101960E94F213CE014C960E9452
:10309000F2138DE093E00E94EC0F62E273E0CE0148
:1030A00001960E948C1328E833E140E050E0BE0115
:1030B0006F5F7F4FCE01845B9F4F0E947A14CE01D9
:1030C00001960E94F21368EB7BE080E090E00E94A2
:1030D00073028E01045A1F4FF801118210829E0163
:1030E000285A3F4FA0963FAF2EAFA0976C961CAECC
:1030F0001DAE1EAE1FAE6C9762E373E0CE0101966B
:103100000E948C13BE016F5F7F4FCE01845B9F4F87
:103110000E94DC106C01CE0101960E94F2133FEF79
:10312000C316D30609F041C08FE393E00E94EC0F71
:103130006CE573E0CE014C960E948C1328EE33E0D0
:1031400040E050E0BE01645E7F4FCE0101960E94D8
:103150007A14CE0101960E94F213CE014C960E9481
:10316000F213CE01845B9F4F0E94F213CE018E5A60
:103170009F4F0E94F213CC59DF4F0FB6F894DEBF79
:103180000FBECDBFDF91CF911F910F91FF90EF90B8
:10319000DF90CF90BF90AF909F908F907F906F9077
:1031A0005F904F903F902F90089562962EAD3FAD67
:1031B0006297A601BE01645B7F4FCE018A5B9F4F81
:1031C0000E949D13A0964FADA0974F936F965FAD51
:1031D0006F975F931F930F9388E693E09F938F936E
:1031E00028968FAD28978F9327968FAD27978F932B
:1031F0000E9443280FB6F894DEBF0FBECDBF0297E2
:1032000009F18FE793E00E94EC0F6CE573E0CE01CB
:103210004C960E948C1324EF31E040E050E0BE0158
:10322000645E7F4FCE0101960E947A14CE01019612
:103230000E94F213CE014C960E94F213CE018A5BDB
:103240009F4F8DCFF80180819181883C910541F19C
:103250006EE973E08DE899E00E94970FF801C08055
:10326000D1800D2C000CEE08FF084AE0C701B60122
:10327000F7FE0DC06DE28DE899E00E948E0366278F
:103280007727CB016C197D098E099F094AE00E94BE
:10329000A60F69E972E08DE899E00E94970FB5CF1B
:1032A000F7016081718147E1CE0101960E94CE163F
:1032B000EA8DFB8D309719F0858181111CC08BEA56
:1032C00093E00E94EC0F6CE573E0CE0182960E94C1
:1032D0008C1324EF31E040E050E0BE016E5D7F4F83
:1032E000CE014C960E947A14CE014C960E94F213A5
:1032F000CE018296A1CF60EC73E08DE899E00E9448
:10330000970FB7018DE899E00E94FF0F4E01F0E49E
:103310008F0E911C6BE972E0C4010E948C13A5967C
:103320001FAEA597412C512C32016C96CCACDDAC74
:10333000EEACFFAC6C974C145D046E047F0408F097
:1033400062C2C418D508E608F70829EBC21621E0C6
:10335000D206E104F10430F088EBC82EDD24D394CA
:10336000E12CF12CB701A601CE014C960E943A1334
:10337000B301A201CE0182960E943A136FEC73E072
:10338000CE0188960E948C13BE016E5D7F4FCE01E8
:1033900088960E9406136CED73E00E94F012BE0145
:1033A000645E7F4F0E940613BC01CE01CA960E9444
:1033B0007213CE0188960E94F213CE0182960E946B
:1033C000F213CE014C960E94F213BE01665C7F4F51
:1033D000CE018E960E947213BE01625D7F4F80EF18
:1033E00098E00E94FF0F0E94A502A4966CAF7DAFEB
:1033F0008EAF9FAFA4976BE972E0CE01C4960E9496
:103400008C136BE972E0CE0188960E948C130E94A7
:10341000A502A4962CAD3DAD4EAD5FADA497621B49
:10342000730B840B950B683B7B408105910508F07D
:103430008EC06BE972E0CE0182960E948C1380EF01
:1034400098E00E94B20297FD09C08A30910531F0E0
:10345000682FCE0182960E949112F1CF6DEC73E03D
:10346000CE014C960E948C132EA13FA188A199A158
:1034700010E02817390740F0BE01645E7F4FCE018F
:1034800082960E94820F182FCE014C960E94F21352
:10349000112391F1BE016E5D7F4FCE014C960E94CB
:1034A00072136AE972E0CE014C960E94F012FC01A0
:1034B0004481558160817181CE01C4960E9465125C
:1034C000CE014C960E94F2138091E9069091EA0693
:1034D000A091EB06B091EC060196A11DB11D809361
:1034E000E9069093EA06A093EB06B093EC06CE01B2
:1034F00082960E94F2138BCFCE0182960E94950194
:10350000FC01808180339CF3CE0182960E9495015C
:10351000FC0180818A335CF7BE016E5D7F4FCE0176
:103520004C960E9472136AE972E0CE014C960E949A
:10353000F012FC014481558160817181CE01C496F5
:103540000E946512CE014C960E94F213D0CF6EED10
:1035500073E0CE014C960E948C13BE016C5C7F4FD1
:10356000CE014C960E940613BC018DE899E00E94A2
:10357000FF0FCE014C960E94F2136DEE73E08DE8C2
:1035800099E00E94970F6091E9067091EA06809198
:10359000EB069091EC064AE00E94A60F69E972E002
:1035A0008DE899E00E94970FCE0188960E94F21351
:1035B000CE018E960E94F2136BE972E0CE014C961A
:1035C0000E948C136AEA72E0CE0182960E948C13EC
:1035D000AE01445E5F4FBE016E5D7F4FCE01C4966B
:1035E0000E94F710CE0182960E94F213CE014C96F3
:1035F0000E94F2136BE972E0CE014C960E948C138C
:103600006BEF73E0CE0182960E948C13AE01445E94
:103610005F4FBE016E5D7F4FCE01C4960E94F710D2
:10362000CE0182960E94F213CE014C960E94F213B4
:1036300048AD59AD6CA97DA9C4010E94651210E086
:1036400000E0F4010480F581E02DA296FFAFEEAF1B
:10365000A2970E171F0708F095C0F401A080B18053
:103660006AE070E0C501800F911F0E94C12700979A
:1036700009F488C01C012A183B08FFEF2F163F06EB
:1036800009F480C09101A801B401CE0182960E9484
:103690009D13CE0182960E947F106DEC73E0CE01E7
:1036A0004C960E948C132EA13FA188A199A1B12C08
:1036B0002817390740F0BE01645E7F4FCE01829625
:1036C0000E94820FB82ECE014C960E94F213BB20AE
:1036D000A9F1AEA0BFA0A114B104D1F06DEF73E0C9
:1036E0008AA19BA10E94CC27892B71F4A5962FADAE
:1036F000A597222329F0CE0182960E94F213A1CF32
:1037000031E0A5963FAFA5974AE0A416B10438F47E
:10371000BE016E5D7F4FCE0101960E94E0028EA138
:103720009FA10B9738F0BE016E5D7F4FCE010196D1
:103730000E94FF0F81010F5F1F4FDDCFCE018296E8
:103740000E949501FC0180818033A4F3CE01829612
:103750000E949501FC0180818A3364F741E050E0CA
:103760006AE972E0CE0182960E9465128EA19FA145
:10377000892B01F3BE016E5D7F4FCE0101960E9441
:10378000E002D8CFA2962EAD3FADA297A801B4011A
:10379000CE014C960E949D13BE01645E7F4FC40112
:1037A0000E94A512CE014C960E94F2134C0C5D1C97
:1037B0006E1C7F1C69E074E08DE899E00E94970F11
:1037C0004AE0C301B2010E94A60F67EC72E08DE8E7
:1037D00099E00E94970F6C966CAD7DAD8EAD9FAD5C
:1037E0006C974AE00E94A60F69E972E08DE899E0C3
:1037F0000E94970FCE01C4960E94F213CE01CA9682
:103800000E94F21392CDC414D504E604F70421F407
:1038100085E194E00E94EC0FCE0101960E94DC1439
:103820006CE573E0CE0182960E948C1324EF31E0A8
:1038300040E050E0BE016E5D7F4FCE014C960E948D
:103840007A14CE014C960E94F213CE0182960E9409
:10385000F2138FE294E00E94EC0FCE01805C9F4F48
:103860000E94F213CE018A5B9F4F79CC1F920F9278
:103870000FB60F9211242F933F938F939F93AF9383
:10388000BF938091E1069091E206A091E306B0918A
:10389000E4063091E00623E0230F2D3768F126E897
:1038A000230F0296A11DB11D2093E0068093E1062F
:1038B0009093E206A093E306B093E4068091E506B8
:1038C0009091E606A091E706B091E8060196A11D49
:1038D000B11D8093E5069093E606A093E706B093AA
:1038E000E806BF91AF919F918F913F912F910F90DB
:1038F0000FBE0F901F9018950196A11DB11DD4CF3A
:103900001F920F920FB60F9211240BB60F922F93A6
:103910003F934F935F936F937F938F939F93AF9357
:10392000BF93EF93FF9380EF98E00E946C03FF91A9
:10393000EF91BF91AF919F918F917F916F915F9127
:103940004F913F912F910F900BBE0F900FBE0F9094
:103950001F9018951F920F920FB60F9211240BB65D
:103960000F922F938F939F93EF93FF93E091000912
:10397000F09101098081E0910609F091070982FD2B
:103980001DC09081809109098F5F8F7320910A0972
:10399000821741F0E0910909F0E0E051F74F958F6F
:1039A00080930909FF91EF919F918F912F910F9033
:1039B0000BBE0F900FBE0F901F9018958081F2CF15
:1039C0001F920F920FB60F9211240BB60F922F93E6
:1039D0003F934F935F936F937F938F939F93AF9397
:1039E000BF93EF93FF938DE899E00E946C03FF91E2
:1039F000EF91BF91AF919F918F917F916F915F9167
:103A00004F913F912F910F900BBE0F900FBE0F90D3
:103A10001F9018951F920F920FB60F9211240BB69C
:103A20000F922F938F939F93EF93FF93E0919D09B4
:103A3000F0919E098081E091A309F091A40982FD93
:103A40001DC090818091A6098F5F8F732091A70977
:103A5000821741F0E091A609F0E0E357F64F958F09
:103A60008093A609FF91EF919F918F912F910F90D5
:103A70000BBE0F900FBE0F901F9018958081F2CF54
:103A8000E0EFF8E01382128288EE93E0A0E0B0E06D
:103A900084839583A683B7832DE632E03183208328
:103AA0004DEC50E0558744874CEC50E057874687F3
:103AB00048EC50E0518B408B49EC50E0538B428BEB
:103AC0004AEC50E0558B448B4EEC50E0578B468BC4
:103AD000118E128E138E148EEDE8F9E0138212828D
:103AE00084839583A683B7833183208325EC30E0DC
:103AF0003587248724EC30E03787268720EC30E0B8
:103B0000318B208B21EC30E0338B228B22EC30E0A8
:103B1000358B248B26EC30E0378B268B118E128E62
:103B2000138E148EEAE2FAE020E520831182ECE2A3
:103B3000FAE0158216821186138642E050E060E0BA
:103B400070E0448755876687778713A215A614A669
:103B50002FE732E033A722A717A6E5E7FAE01382A2
:103B6000128284839583A683B7838BE892E0918346
:103B70008083128E118E14860895CF93DF93CDB774
:103B8000DEB7C556D1090FB6F894DEBF0FBECDBF64
:103B9000789484B5836084BD85B5836085BD80914C
:103BA0006E00816080936E0082E08093810090912E
:103BB000810091609093810090918000916090933A
:103BC00080009091B10094609093B1009091B0000A
:103BD00091609093B00090919100936090939100C8
:103BE000909190009160909390009091A1009360CB
:103BF0009093A1009091A00091609093A00090916B
:103C00002101936090932101909120019160909304
:103C1000200197E890937A001092C100E0919D09ED
:103C2000F0919E098083E0919909F0919A091082A0
:103C3000E0919B09F0919C0990E190831092A50975
:103C4000E091A109F091A20926E02083E0919F096B
:103C5000F091A009908198699083E0919F09F0917B
:103C6000A00990819F7D9083E0910009F091010966
:103C70008083E091FC08F091FD081082E091FE083D
:103C8000F091FF088FEC808310920809E0910409FD
:103C9000F09105092083E0910209F09103098081E8
:103CA00088698083E0910209F091030980818F7D0A
:103CB000808387E494E00E94EC0F64EF71E080E081
:103CC00090E00E94730280915B0A882321F086E5D0
:103CD0009AE00E94C00B1092370A1092350A109297
:103CE000320A1092310A85E38093300A0E94A502BD
:103CF0008B018091300A0E94A30161E08091300A1B
:103D00000E94C201FFB6F8948091DF06811124C0A1
:103D1000EBE4F2E08491E1EAF2E09491E82FF0E044
:103D2000EE0FFF1FE450FE4FA591B491EC91E923F3
:103D300021F461E085E30E94C20185E30E94A301B2
:103D40008CB580618CBD8CB580648CBD84E30E9491
:103D5000A30183E30E94A3018091DF068F5F80931C
:103D6000DF06FFBE82E580932A0A10922B0A80911B
:103D70002A0A90912B0A0E945E042AE0F22E8FEF0D
:103D80000E943904FA94F110FACF8CE29AE00E9472
:103D9000610420E030E0A90160E08CE29AE00E943A
:103DA0007704F82E8093360A81E0F816B9F00E9465
:103DB000A502601B710B613D774058F381E0809351
:103DC000310A8CE29AE00E942E0486E095E00E947F
:103DD000EC0F89EC96E00E94EC0FFFCF2AEA31E06D
:103DE00040E050E068E08CE29AE00E94770482FFB5
:103DF0002AC0F092370A8091370AC12CD12C760163
:103E0000823029F4C12CD12CE12C80E4F82E20E062
:103E100030E0A90167E38CE29AE00E947704A701F1
:103E2000960169E28CE29AE00E9477048093360A58
:103E30008823D1F00E94A502601B710B613D774081
:103E400030F388E0BCCF94E0F92E0E9440048093C8
:103E5000360AFA94F110F9CF8A3A11F082E0AFCF26
:103E600082E08093370AC7CF8091370A8230D1F43D
:103E700020E030E0A9016AE38CE29AE00E94770436
:103E8000882311F086E09BCF0E944004807C803C18
:103E900019F483E08093370A0E9440040E94400492
:103EA0000E9440048CE29AE00E942E0480E58093F8
:103EB0002A0A10922B0A81E00E947D06882309F4C9
:103EC000BCC086E59AE00E943409882309F47DCFBE
:103ED0008DE594E00E94EC0F82E794E00E94EC0FE5
:103EE00060E974E0CE01C3960E948C1328EE33E0A3
:103EF00040E050E0BE016D5C7F4F8E010F5F1F4FB1
:103F0000C8010E947A14C8010E94F213CE01C39620
:103F10000E94F21387E994E00E94EC0F62EC74E0D7
:103F2000CE01C3960E948C1328EE33E040E050E0AF
:103F3000BE016D5C7F4FC8010E947A14C8010E94C7
:103F4000F213CE01C3960E94F21365EC74E0CE0129
:103F5000C3960E948C1328EE33E040E050E0BE018F
:103F60006D5C7F4FC8010E947A14C8010E94F21351
:103F7000CE01C3960E94F21360ED74E0CE01C396A9
:103F80000E948C1328EE33E040E050E0BE016D5CEF
:103F90007F4FC8010E947A14C8010E94F213CE011B
:103FA000C3960E94F21382EE94E00E94EC0F6DEF34
:103FB00074E0C8010E948C13C8010E94FA13F82E05
:103FC000C8010E94F213F1103FC08DE195E00E94FC
:103FD000EC0F64E072E0C8010E948C13C8010E94DB
:103FE000CD17C8010E94F21385EF95E00E94EC0FF7
:103FF00066E576E0CE01805A9F4F0E948C1364E004
:1040000072E0CE01865A9F4F0E948C136C966EAD63
:104010007FAD6C9741E0CE01C3960E94CE162E96DE
:10402000EEADFFAD2E97309719F08581811156C006
:104030008EE596E00E94EC0F68C080E00E947D064D
:10404000882309F4C2CE3DCF61E475E0C8010E9427
:104050008C13C8010E94FA13F82EC8010E94F213B3
:104060008CE495E0FF2009F4B2CF6DE675E0C8015D
:104070000E948C13C8010E94FA13F82EC8010E94F6
:10408000F2138AE795E0FF2009F4A1CF82E192E0E4
:104090009F938F9381EA95E09F938F931F930F9344
:1040A0000E941328B801CE01C3960E948C13CE0142
:1040B000C3960E94FA13F82ECE01C3960E94F21303
:1040C0000F900F900F900F900F900F9088EB95E04E
:1040D000FF2009F47CCF82ED95E079CFA2966EADFA
:1040E0007FADA29747E1C8010E94CE16EA8DFB8DF5
:1040F000309719F08581811188C087E796E00E948A
:10410000EC0FCE01C3960E94DC14CE01865A9F4F5D
:104110000E94F213CE01805A9F4F0E94F21359CE93
:10412000CE018C5A9F4F0E947F106DEC73E0CE0140
:10413000825B9F4F0E948C136A962EAD3FAD6A97AB
:1041400064968EAD9FAD6497F12C2817390748F01F
:10415000BE01625B7F4FCE018C5A9F4F0E94820F3F
:10416000F82ECE01825B9F4F0E94F213FF20E9F0F0
:104170006A962EAD3FAD6A972250310949E050E072
:10418000BE016C5A7F4FCE01825B9F4F0E949D13F0
:10419000BE01625B7F4FCE018C5A9F4F0E94A512D9
:1041A000CE01825B9F4F0E94F2136A96CEACDFACC9
:1041B0006A97F12CE12CEC14FD0414F582E0E80E72
:1041C000F11CA701425051099701BE016C5A7F4F63
:1041D000CE01825B9F4F0E949D1340E150E070E052
:1041E00060E060968EAD9FAD60970E942D21C80162
:1041F0000E941F0ECE01825B9F4F0E94F213DBCF05
:10420000CE018C5A9F4F0E94F213CE01C3960E949A
:10421000D20D892BC1F06BE972E0CE018C5A9F4F11
:104220000E948C13CE01C3960E94B20297FD78CFF4
:104230008A30910509F474CF682FCE018C5A9F4FB4
:104240000E949112EFCFCE01C3960E94DC14C801E8
:104250000E94DC148CE996E0EDCE3F924F925F9283
:104260006F927F928F929F92AF92BF92CF92DF9286
:10427000EF92FF920F931F93CF93DF935C016B013B
:104280007A016115710519F0FB0191838083E114B6
:10429000F10451F0C7010297839730F040E030E01D
:1042A00020E090E06BC05E01E5012196F5011081F0
:1042B000812F90E00E945B22892BA9F71D3201F526
:1042C0002196F501118101E0E114F10409F4E6C041
:1042D000F0E1EF16F10409F088C0103359F4888139
:1042E0008F7D883509F07CC0198122960260F0E14B
:1042F000EF2EF12C812C912CA12C88E0B82E92C0AD
:104300001B3221F4E5012296F501118100E0DCCF9A
:10431000EAE0EE16F10409F4C7C0F0E1EF16F1048B
:1043200009F073C0E7CF78E0E72EF12C812C912CB7
:10433000A12C60E1B62E76C021E0ADC0302F3170E7
:10434000C114D10431F0222371F12197F601D183F8
:10435000C08327FF2EC060E070E080E090E831115C
:1043600004C06FEF7FEF8FEF9FE722E230E03093E2
:10437000910A2093900A462F372F282F642F732FEE
:10438000822FDF91CF911F910F91FF90EF90DF90DF
:10439000CF90BF90AF909F908F907F906F905F90E5
:1043A0004F903F90089501FF04C02297F601D183FA
:1043B000C083332341F090958095709561957F4F30
:1043C0008F4F9F4FD8CF97FFD6CF82E290E0909348
:1043D000910A8093900A6FEF7FEF8FEF9FE7CBCF2B
:1043E00010E3E114F10409F49ECF28E0E216F10491
:1043F00009F49CCF0CF08CCF812C912CA12CE0E403
:10440000BE2E82E0E816F10469F060E070E080E022
:1044100090E897010F2C000C440B550B0E944F2580
:1044200049015A0120E060E070E0CB0127010F2C28
:10443000000C66087708FE0150ED352E310E39E08C
:10444000331570F43FEB310F49EC342E3A3138F02C
:104450003FE9310F3A3108F071CF39EA332E310E8E
:104460003E141F040CF06ACF27FD15C08616970670
:10447000A806B90678F0A30192010E943F25630DBA
:10448000711D811D911D61307105810520E8920724
:1044900008F452CF2FEF21961081CDCF103309F4BD
:1044A0001ECF2AE0E22EF12C9CEC892E982CA82C11
:1044B0009CE0B92EB7CF91110C948824803219F06A
:1044C00089508550C8F70895BB27FA01A62F6217B7
:1044D000710581059105330B30FB66F0AA27660F45
:1044E000771F881F991FAA1FA21710F0A21B6395A0
:1044F0003850A9F7A05DAA3308F0A95DA19336F75B
:10450000B111B1931082CA010C94A1242F923F9251
:104510004F925F926F927F928F929F92AF92BF92D3
:10452000CF92DF92EF92FF920F931F93CF93DF937F
:1045300000D000D000D01F921F92CDB7DEB77C0113
:104540003B018A01FC0117821682838181FFDDC154
:10455000CE0101965C01F7019381F30193FD8591F2
:1045600093FF81913F01882309F453C1853239F4C7
:1045700093FD859193FF81913F01853229F4B70125
:1045800090E00E94B124E7CF912C212C312CFFE147
:10459000F31538F08B3211F190F4803209F1833247
:1045A00029F137FC3CC020ED280F2A3050F536FEAB
:1045B00020C08AE0989E200D1124922E06C08D32D4
:1045C00091F0803371F7689430F8F30193FD859191
:1045D00093FF81913F018111DACF21C0689431F8B6
:1045E000689432F8F2CF689433F8EFCF689434F8D7
:1045F000ECCFEAE02E9E200D1124222E689435F88F
:10460000E4CF8E3229F436FC04C1689436F8DDCF4D
:104610008C3619F4689437F8D8CF8836B1F2982FD1
:104620009F7D95549330E0F08336A1F18337C1F13B
:10463000833509F063C02801F2E04F0E511CF801E8
:10464000C080D180692D70E036FC02C06FEF7FEF33
:10465000C6010E948B244C01689437F882010AC07D
:104660000C5F1F4FFFE3F98388248394912C65012D
:10467000E89437F833FE2DC0522C8114910471F563
:10468000552009F468CFB70180E290E00E94B12480
:104690005A94F6CFF801808189830E5F1F4FE4CFD3
:1046A0002801F2E04F0E511CF801C080D180692D25
:1046B00070E036FC02C06FEF7FEFC6010E949624C7
:1046C0004C018201D5CFB70180E290E00E94B12475
:1046D0002A942814190409F0B0F7CECFF60137FC5C
:1046E000859137FE81916F01B70190E00E94B1245E
:1046F00051105A94F1E08F1A9108BFCF843619F007
:10470000893609F077C0F80137FE6BC0608171818E
:10471000828193810C5F1F4FF32DFF763F2E97FF11
:1047200009C090958095709561957F4F8F4F9F4FF1
:10473000689437F82AE030E0A5010E94E124C82EF1
:10474000CA188C2C432C36FE0CC0E89440F8C914CF
:1047500040F434FE05C032FC03C0F32DFE7E4F2E24
:10476000892C44FEAAC0FE01EC0DF11D808180332E
:1047700009F09CC0242D297E422E842D8870582E4D
:1047800043FCAAC040FEA4C09C2C821418F42C0C3C
:10479000922C981844FEA6C0B70180E390E00E94D6
:1047A000B12442FE09C088E790E041FE02C088E5DE
:1047B00090E0B7010E94B124C91408F49FC0CA94C4
:1047C000D12C9FEFC91AD90ACA0CDB1CF6018291C1
:1047D0006F01B70190E00E94B124AC14BD04B1F7A1
:1047E0004FCF60817181072E000C880B990B0E5FF3
:1047F0001F4F92CFD32CE894D4F82AE030E08537CD
:10480000E1F1232D297FD22E8F36A9F1F0F48835DE
:1048100051F1F701868197812B960FB6F894DEBF90
:104820000FBECDBFDF91CF911F910F91FF90EF9001
:10483000DF90CF90BF90AF909F908F907F906F90C0
:104840005F904F903F902F900895803749F08837C0
:1048500001F7D4FE02C06894D2F820E130E00DC028
:104860006894D4F8F6CF34FE03C0822F8660D82E29
:1048700020E132E002C028E030E0F801D7FE0FC0AE
:1048800060817181828193810C5F1F4FA5010E941D
:10489000E124C82ECA183D2CE89437F852CF608125
:1048A000718190E080E00E5F1F4FF0CF42FC02C0AC
:1048B000839463CF8394839460CF842D867809F4A6
:1048C0005CCFF6CFB70180E290E00E94B1248394E0
:1048D0008214C0F3512C5ECF522C5818821408F465
:1048E00059CFF8CF842D867809F466CF8BE241FE4C
:1048F00080E247FC8DE2B70190E05CCFB70180E336
:1049000090E00E94B1249A9457CF8FEF9FEF84CF0D
:10491000992788270895FC01059061507040011087
:10492000D8F7809590958E0F9F1F0895FC016150D8
:10493000704001900110D8F7809590958E0F9F1FC1
:104940000895DC01FC01672F71917723E1F732971D
:1049500004C07C916D9370836291AE17BF07C8F35A
:1049600008950F931F93CF93DF93182F092FEB0117
:104970008B8181FD09C01FEF0FEF812F902FDF91F9
:10498000CF911F910F91089582FF14C02E813F8116
:104990008C819D81281739073CF4E881F981CF018A
:1049A00001969983888310838E819F8101969F83CE
:1049B0008E83E3CFE885F985812F1995892BA1F3A3
:1049C000DACFFA01AA27283051F1203181F1E89499
:1049D0006F936E7F6E5F7F4F8F4F9F4FAF4FB1E0F2
:1049E0003ED0B4E03CD0670F781F891F9A1FA11DED
:1049F000680F791F8A1F911DA11D6A0F711D811DEE
:104A0000911DA11D20D009F468943F912AE0269FB2
:104A100011243019305D3193DEF6CF010895462F11
:104A20004770405D4193B3E00FD0C9F7F6CF462FF2
:104A30004F70405D4A3318F0495D31FD405241935B
:104A400002D0A9F7EACFB4E0A69597958795779518
:104A50006795BA95C9F700976105710508959B019F
:104A6000AC010A2E06945795479537952795BA9528
:104A7000C9F7620F731F841F951FA01D0895DB01E6
:104A80008F939F930E947125BF91AF91A29F800D3C
:104A9000911DA39F900DB29F900D11240895A1E246
:104AA0001A2EAA1BBB1BFD010DC0AA1FBB1FEE1FA8
:104AB000FF1FA217B307E407F50720F0A21BB30BF3
:104AC000E40BF50B661F771F881F991F1A9469F76F
:104AD00060957095809590959B01AC01BD01CF01CB
:104AE00008950E947C25A59F900DB49F900DA49FD2
:104AF000800D911D11240895A29FB001B39FC001A4
:104B0000A39F700D811D1124911DB29F700D811DF9
:104B10001124911D0895EE0FFF1F881F8BBF079072
:104B2000F691E02D19940F931F93CF93DF9382306A
:104B3000910510F482E090E0E091940AF091950ADA
:104B400030E020E0B0E0A0E0309799F42115310585
:104B500009F44AC0281B390B24303105D8F58A8165
:104B60009B816115710589F1FB0193838283FE01AD
:104B700011C0408151810281138148175907E0F02B
:104B80004817590799F4109761F012960C931297F1
:104B900013961C933296CF01DF91CF911F910F9105
:104BA00008950093940A1093950AF4CF21153105C6
:104BB00051F04217530738F0A901DB019A01BD01FA
:104BC000DF01F801C1CFEF01F9CF9093950A8093EF
:104BD000940ACDCFFE01E20FF31F819391932250EF
:104BE000310939832883D7CF2091920A3091930AD3
:104BF000232B41F420910E0230910F023093930A3F
:104C00002093920A20910C0230910D02211531055A
:104C100041F42DB73EB74091100250911102241B70
:104C2000350BE091920AF091930AE217F307A0F492
:104C30002E1B3F0B2817390778F0AC014E5F5F4FF2
:104C40002417350748F04E0F5F1F5093930A409387
:104C5000920A819391939FCFF0E0E0E09CCFCF93B5
:104C6000DF930097E9F0FC01329713821282A09142
:104C7000940AB091950AED0130E020E01097A1F47C
:104C800020813181820F931F2091920A3091930AE3
:104C90002817390709F061C0F093930AE093920A4C
:104CA000DF91CF910895EA01CE17DF07E8F54A8139
:104CB0005B819E0141155105B1F7E901FB83EA8350
:104CC00049915991C40FD51FEC17FD0761F48081FC
:104CD00091810296840F951FE901998388838281CF
:104CE00093819B838A83F0E0E0E012968D919C9102
:104CF00013970097B9F52D913C911197CD0102962C
:104D0000820F931F2091920A3091930A2817390736
:104D100039F6309751F51092950A1092940AB09393
:104D2000930AA093920ABCCFD383C283408151815E
:104D3000840F951FC817D90761F44E5F5F4F8881B4
:104D40009981480F591F518340838A819B819383A6
:104D500082832115310509F0B0CFF093950AE093D5
:104D6000940A9ECFFD01DC01C0CF13821282D7CFFF
:104D70004F925F926F927F928F929F92AF92BF926B
:104D8000CF92DF92EF92FF920F931F93CF93DF9317
:104D90008C01009799F4CB01DF91CF911F910F9176
:104DA000FF90EF90DF90CF90BF90AF909F908F904B
:104DB0007F906F905F904F900C949325FC01E60FCD
:104DC000F71F9C0122503109E217F30708F4AEC027
:104DD000D901CD91DC911197C617D70720F1C530C5
:104DE000D10578F0CE0104978617970750F0C61BBF
:104DF000D70B2297C193D1936D937C93CF010E94DF
:104E00002F26C801DF91CF911F910F91FF90EF9056
:104E1000DF90CF90BF90AF909F908F907F906F90DA
:104E20005F904F9008955B01AC1ABD0A4C018C0E47
:104E30009D1EA091940AB091950A512C412CF12C01
:104E4000E12C109731F58091920A9091930A881580
:104E5000990509F05CC04616570608F058C08091C5
:104E60000C0290910D02009741F48DB79EB74091CE
:104E7000100250911102841B950BE817F90708F0F6
:104E800055C0F093930AE093920AF901718360830D
:104E9000B8CF8D919C91119712966C9012971396A2
:104EA0007C901397A815B90559F56C0142E0C40E22
:104EB000D11CCA14DB0420F1AC014A195B09DA01E8
:104EC0001296159780F06282738251834083D901D4
:104ED0006D937C93E114F10471F0D7011396FC9368
:104EE000EE9312978ECF22968C0F9D1FF90191831E
:104EF0008083F301EFCFF093950AE093940A81CF7A
:104F00004816590608F42C017D01D3019ACFCB0134
:104F10000E9493257C01009749F0AE01B8010E94E0
:104F2000A627C8010E942F2687016BCF10E000E062
:104F300068CFFB01DC0104C08D910190801921F440
:104F400041505040C8F7881B990B0895FB01DC01C4
:104F500002C001900D9241505040D8F70895681753
:104F6000790768F4FB01DC01E40FF51FA40FB51FFE
:104F700002C002900E9241505040D8F708950C9410
:104F8000A627FC018191861721F08823D9F799275C
:104F900008953197CF010895FB01DC018D910190B7
:104FA00080190110D9F3990B0895FB01DC010190E0
:104FB0000D920020E1F70895FB01DC0141505040C3
:104FC00030F08D910190801919F40020B9F7881BF9
:104FD000990B0895FB01DC014150504048F00190CD
:104FE0000D920020C9F701C01D9241505040E0F7DA
:104FF0000895FB0151915523A9F0BF01DC014D91AA
:1050000045174111E1F759F4CD010190002049F015
:105010004D9140154111C9F3FB014111EFCF81E0E2
:1050200090E0019708950F931F93CF93DF93CDB72F
:10503000DEB72E970FB6F894DEBF0FBECDBF0E8938
:105040001F8986E08C831A8309838FEF9FE79E83F5
:105050008D83AE01465E5F4F688D798DCE010196DE
:105060000E9486222F813885020F131FF8011082BB
:105070002E960FB6F894DEBF0FBECDBFDF91CF9155
:105080001F910F910895CF93DF93CDB7DEB72E9781
:105090000FB6F894DEBF0FBECDBF85E08C838C8940
:1050A0009D899A838983AE01485E5F4F6E897F89AF
:1050B000CE0101960E940F2A2E960FB6F894DEBFFD
:1050C0000FBECDBFDF91CF91089520FD09C0FC0137
:1050D00023FD05C022FF02C0738362835183408396
:1050E000089544FD17C046FD1DC0DB01FC01AA0F59
:1050F000BB1FEE1FFF1F1094D1F76A0F7B1F8E1F7F
:105100009F1F660F771F881F991F620F711D811DDA
:10511000911D089533E0660F771F881F991F315046
:10512000D1F7F3CF34E0F7CF0F931F93CF93DF93F3
:105130008C01C8010E94332BEC0197FD08C00E942E
:105140005B22892BB1F7B801CE010E946F2BCE01F3
:10515000DF91CF911F910F9108958F929F92AF92FF
:10516000BF92EF92FF920F931F93CF93DF938C0127
:10517000D62F7A01B22E0E94332B9C0133272B327B
:10518000310529F02D323105A9F46894B7F8D150D2
:1051900061F480E0DF91CF911F910F91FF90EF902C
:1051A000BF90AF909F908F900895C8010E94332BBD
:1051B00097FDEFCFCB2DCD7F2B2D2073F9F48033CE
:1051C000E9F4AA24AA94AD0E89F0C8010E94332BF9
:1051D00097FD0CC0282F2F7D283561F4C264D25072
:1051E00029F0C8010E94332B97FF08C0812C912C15
:1051F00054011BC0B6FE2BC0C260DA2D812C912C4D
:10520000540120ED280F283028F1C4FD09C02A30B0
:1052100008F1C6FF05C02F7D3FEE320F3630C8F0D3
:10522000B8010E946F2BC1FFB4CFC7FF08C0B09474
:10523000A09490948094811C911CA11CB11C2C2FD3
:10524000B501A401C7010E94652881E0A3CFC26116
:10525000D4CF27504C2FC501B4010E9471284B01B7
:105260005C01C260D15009F3C8010E94332B97FF43
:10527000C8CFD9CF7F928F929F92AF92BF92CF9299
:10528000DF92EF92FF920F931F93CF93DF93CDB7EF
:10529000DEB7A0970FB6F894DEBF0FBECDBF5C019E
:1052A000962E7A01CE0101966C0180E2F6011192F0
:1052B0008A95E9F7F501B381890130E020E0712C8E
:1052C000812CA0E041E050E0F801B3FD8591B3FFEF
:1052D0008191982F8F01811117C010E000E0C80163
:1052E000A0960FB6F894DEBF0FBECDBFDF91CF9171
:1052F0001F910F91FF90EF90DF90CF90BF90AF90F4
:105300009F908F907F9008958E3519F42115310567
:1053100041F1A21713064CF48D3549F18D3229F471
:10532000811006C0882483941DC0882009F464C0BD
:10533000E92FE695E695E695EC0DFD2DF11D892FFB
:105340008770BA0101C0660F8A95EAF78081682BE1
:105350006083791651F0971510F49F5FE9CF915053
:10536000E7CFA1E02F5F3F4FAFCF812CFBCF88204D
:1053700019F08E8180628E83AA2359F0F6019E0176
:105380002F5D3F4F8081809580833196E217F30730
:10539000C9F788248394C5010E94332B97FD16C05A
:1053A000E82FE695E695E695EC0DFD2DF11D2081A3
:1053B00030E0AC014770552702C0359527954A95D6
:1053C000E2F720FD06C0B5010E946F2B882069F02E
:1053D00084CFE114F10429F0F7018083C70101961D
:1053E0007C019A94812C9110D6CFE114F10409F438
:1053F00076CFF701108273CFE82FE695E695E69514
:10540000EC0DFD2DF11D982F9770BA0101C0660FAC
:105410009A95EAF79081692B6083782EA3CF5F92EB
:105420006F927F928F929F92AF92BF92CF92DF92B4
:10543000EF92FF920F931F93CF93DF936C01EB01D9
:105440005A01FC0117821682512CF601E380FE01FD
:10545000E3FC8591E3FE8191182FEF018823E9F0A9
:1054600090E00E945B22892B21F0C6010E949428C3
:10547000ECCF153241F4FE01E3FC1591E3FE1191EE
:10548000EF01153269F4C6010E94332B97FD8EC0DF
:105490001817D9F2B6010E946F2B852D90E08AC0B3
:1054A00000E01A3231F4E3FC1591E3FE1191EF01B3
:1054B00001E0F12C20ED210F2A3048F101FF37C027
:1054C000FF2059F31836B1F11C3609F43DC0112301
:1054D00021F3612F70E080E791E00E94282B892B57
:1054E000E1F2912C812C00FD06C0F50180809180B5
:1054F000C50102965C011E3679F5F6014681578199
:1055000070E060E0202FC4010E9465289ECF0260F9
:105510006F2D70E090E080E040E20E947128F62E4E
:10552000FE01E3FC1591E3FE1191EF01C3CFFF24CF
:10553000FA94C8CFFE01E3FC1591E3FE1191EF014F
:10554000183609F0C4CF08600460FE01E3FC159131
:10555000E3FE1191EF01BBCF1336C1F401FD02C090
:10556000FF24F394C6010E94332B97FD1FC08114C2
:10557000910429F0F4018083C40101964C01FA944E
:10558000F110F0CF00FD61CF53945FCF1B3511F5C3
:105590009E01A4016F2DC6010E943A29EC01892BBE
:1055A00089F7F6018381807309F477CF8FEF9FEF3E
:1055B000511073CFDF91CF911F910F91FF90EF901A
:1055C000DF90CF90BF90AF909F908F907F906F9023
:1055D0005F900895C6010E94942897FDE7CF1F367B
:1055E000A9F130F4143641F0193639F0006405C0E1
:1055F0001337B9F01537D1F70062202FA4016F2DB2
:10560000C6010E94AD288111BDCFCBCF811491047A
:1056100029F0F4016082C40101964C01FA94FF2044
:1056200071F0C6010E94332B3C0197FD08C00E9417
:105630005B22892B59F3B601C3010E946F2B8114A1
:10564000910409F49FCFF40110829CCF0061D5CF63
:10565000FC010590061621F00020D9F7C00108953D
:105660003197CF010895CF93DF93EC012B8120FF79
:105670001AC026FF0CC02F7B2B838E819F81019641
:105680009F838E838A8190E0DF91CF91089522FFDE
:1056900018C0E881F9818081082E000C990B0097D1
:1056A00029F420622B838FEF9FEFEECF3196F983A1
:1056B000E8832E813F812F5F3F4F3F832E839927C1
:1056C000E3CFEA85FB85199597FFF3CF2B810196F0
:1056D00021F080E2822B8B83E6CF80E1FBCFFB01C0
:1056E000238120FF11C026FD0FC08F3F980771F066
:1056F00082832F7D206423832681378121503109C5
:1057000037832683992708958FEF9FEF0895F894A4
:02571000FFCFC9
:10571200FFFFFFFF3536362E686578000000960AD7
:105722008000696E7465726E65742E766F64616650
:105732006F6E652E6E65740068747470733A2F2FE5
:1057420073686568616268617373616E2E676974FC
:105752006875622E696F2F464F54415F544553540A
:105762002F6669726D776172655F323536305F31EF
:105772005F305F302E68657800000000008E03EE17
:10578200021B03DB034C032A033E030000000068F4
:105792000DEE02620BB102000000001F0E020EF2BB
:1057A2000DC90DD20D540F5E0F0D0A004154205247
:1057B2006573706F6E73653A20004F4B00457272CD
:1057C2006F723A20415420636F6D6D616E64206682
:1057D20061696C656421002F00496E697469616CAE
:1057E200697A696E6720485454502E2E2E00415417
:1057F2002B48545450494E49540053657474696E91
:10580200672055524C2E2E2E0041542B4854545092
:10581200504152413D2255524C222C220053746178
:105822007274696E672048545450204745542E2E96
:105832002E0041542B48545450414354494F4E3D3D
:1058420030002B48545450414354494F4E3A00487B
:10585200545450414354494F4E20726573706F6ED9
:105862007365206D697373696E67210041542B481B
:105872005454505445524D002B48545450414354B3
:10588200494F4E3A20252A642C25642C2564004673
:1058920061696C656420746F207061727365204861
:1058A20054545020726573706F6E736521004854B2
:1058B2005450204572726F723A2000534420666938
:1058C2006C65206F70656E206661696C656421008D
:1058D20053442066696C65206F70656E203A004102
:1058E200542B48545450524541443D002C004154DD
:1058F20020526573706F6E73653A200A006E6F20D6
:105902006F66206C696E65733A20000D003A303084
:1059120030303030303146460050726F63657373F9
:1059220065643A200046696C652052656369766554
:1059320064207375636365737366756C6C79004676
:10594200696C652073617665642073756363657342
:105952007366756C6C79004F70656E696E67205363
:10596200442043617264202E202E202E00534420B6
:105972004361726420726561647920746F2075736B
:10598200650053494D37363030205369676E616C7C
:10599200205175616C6974792E2E2E2E2E2E2E00BA
:1059A20041542B43535100436865636B204E657429
:1059B200776F726B20537461747573202620666C46
:1059C2006F7720636F6E74726F6C202E2E2E2E2EC8
:1059D2002E0041540041542B4946433D322C3200A3
:1059E20041542B434E4D493D322C312C302C302C1E
:1059F2003000496E697469616C697A696E67204822
:105A02005454502073657475702E2E2E0041542B01
:105A1200435245473F004661696C656420746F20BC
:105A22006F70656E20534420436172640045727248
:105A32006F723A204E6574776F726B207265676978
:105A42007374726174696F6E206661696C6564213A
:105A52000041542B43474154543D31004572726F0B
:105A6200723A204661696C656420746F20617474B7
:105A720061636820746F2047505253210041542BB8
:105A820043474143543D312C31004572726F723AA3
:105A9200204661696C656420746F20616374697665
:105AA2006174652050445020636F6E746578742170
:105AB2000041542B434744434F4E543D312C22491D
:105AC20050222C22257322004572726F723A2046B0
:105AD20061696C656420746F207365742041504E57
