:100000000C9465010C9496010C9496010C94960145
:100010000C9496010C9496010C9496010C94960104
:100020000C9496010C9496010C9496010C949601F4
:100030000C9496010C9496010C9496010C949601E4
:100040000C9496010C9496010C9496010C949601D4
:100050000C9496010C9496010C9496010C94CC1877
:100060000C9496010C94A0190C9476190C9496019A
:100070000C9496010C9496010C9496010C949601A4
:100080000C9496010C9496010C9496010C94960194
:100090000C9440190C9416190C9496010C94D619D2
:1000A0000C9496010C9496010C9496010C94960174
:1000B0000C9496010C9496010C9496010C94960164
:1000C0000C9496010C9496010C9496010C94960154
:1000D0000C9496010C9496010C9496010C94960144
:1000E0000C9496010C9432020C940D0F0C94A70200
:1000F0000C948B0D0C94210D0C9428020C94050388
:100100000C941A020C941E020C94F21D0C9416020C
:100110000C943E020C94E7010C94D80D0C94F01A48
:100120000C94820D0C94E3020C9424020C94A6020D
:100130000C94D4020C9447030C94F7020C94BB0D5E
:100140000C942C020C94EC010C9410020C941B0BDC
:100150000C94AB0D0C94FE010C9406020C949403C9
:100160000C94170F0C9436020C9402020C943A0271
:100170000C940C026364696E6F70737578585B0041
:100180007C3C3E5E2B3D3F2F5B5D3B2C2A225C007E
:1001900000000B0C030A0D0E0F09080405020000F5
:1001A000000000000000000000000000000000004F
:1001B0000000000000000000000000001312110009
:1001C000000000000000000000000000000000002F
:1001D000000000000000000000000000000000001F
:1001E00000000000000000002200250028002B0075
:1001F0002E003100340002010000050108010B014E
:1002000000002100240027002A002D0030003300C8
:1002100001010000040107010A01050505050705A4
:1002200008080808020202020A0A08080404040472
:10023000010101010101010103030303030303039E
:10024000040707070C0C0C0C0C0C0C0C020202022D
:1002500006060606060606060B0B0B0B0B0B0B0B16
:10026000050505080807070404040A0A0A0A0A0A19
:1002700001021020200808102040102040800201B8
:10028000020108040201010204081020408080409D
:10029000201008040201800402018040201008049C
:1002A000020108040201010204081020408001023A
:1002B0000408102040800440800480081010204072
:1002C000040810204080F01AF21D11241FBECFEF49
:1002D000D1E2DEBFCDBF00E00CBF2AE0A0E6B6E071
:1002E00001C01D92A638B207E1F716E0A0E0B2E027
:1002F000ECE1FEE400E00BBF02C007900D92A036D7
:10030000B107D9F711E0C4E6D1E000E006C02197BB
:100310000109802FFE010E942921C336D10780E008
:100320000807A9F70E948A1B0C94FC260C94000075
:1003300090E0FC01E059FD4F2491865E9D4FFC0149
:100340008491882399F090E0880F991FFC01E05078
:10035000FE4FA591B491FC01EA51FE4F8591949115
:100360008FB7F894EC91E22BEC938FBF0895282F70
:1003700030E0F901E057FE4F9491F901E059FD4F4B
:100380004491265E3D4FF9012491222309F435C0A2
:10039000992311F192509231F8F4E92FF0E0882777
:1003A000EB52FE4F8F4F0C9429213A023E02E70197
:1003B000FE010202EC0106020C02100216021A02F1
:1003C0001E0224022802EC012C0232023602809125
:1003D00080008F7780938000E22FF0E0EE0FFF1F08
:1003E000EA51FE4FA591B4918FB7F894EC91611149
:1003F00048C040954E234C938FBF08958091800054
:100400008F7DE8CF80918000877FE4CF8091B0001E
:100410008F778093B000E0CF8091B0008F7DF9CFCF
:10042000809190008F7780939000D6CF809190003C
:100430008F7DF9CF80919000877FF5CF8091A000CC
:100440008F778093A000C8CF8091A0008F7DF9CFD7
:100450008091A000877FF5CF809120018F778093D6
:100460002001BACF809120018F7DF9CF80912001AA
:10047000877FF5CF84B58F7784BDAECF84B58F7D70
:10048000FBCF4E2BB8CF3FB7F8948091BE0690912A
:10049000BF06A091C006B091C10626B5A89B05C0B5
:1004A0002F3F19F00196A11DB11D3FBFBA2FA92FF3
:1004B000982F8827BC01CD01620F711D811D911DF0
:1004C00042E0660F771F881F991F4A95D1F708955C
:1004D0008F929F92AF92BF92CF92DF92EF92FF9254
:1004E0004B015C010E9443026B017C010E944302AC
:1004F0006C197D098E099F09683E7340810591053D
:10050000A8F321E0821A9108A108B10888EEC80E6C
:1005100083E0D81EE11CF11C81149104A104B104F4
:1005200029F7FF90EF90DF90CF90BF90AF909F9012
:100530008F9008952FB7F8946091BA067091BB061A
:100540008091BC069091BD062FBF08950895AF928B
:10055000BF92CF92DF92EF92FF920F931F93CF93B0
:10056000DF936C017B018B01040F151FEB015E0112
:10057000AE18BF08C017D10759F06991D601ED91A7
:10058000FC910190F081E02DC6011995892B79F736
:10059000C501DF91CF911F910F91FF90EF90DF90F8
:1005A000CF90BF90AF900895FC01538D448D252FBF
:1005B00030E0842F90E0821B930B541710F0CF96FD
:1005C000089501970895FC01918D828D981761F02F
:1005D000A28DAE0FBF2FB11D5D968C91928D9F5F46
:1005E0009F73928F90E008958FEF9FEF0895FC0125
:1005F000918D828D981731F0828DE80FF11D858DD8
:1006000090E008958FEF9FEF0895FC01918D228D6A
:10061000892F90E0805C9F4F821B91098F739927EF
:10062000089584EC98E00E94050321E0892B09F4E9
:1006300020E0822F089581E699E00E94050321E0E1
:10064000892B09F420E0822F0895FC01A48DA80FC6
:10065000B92FB11DA35ABF4F2C91848D90E0019604
:100660008F739927848FA689B7892C93A089B18924
:100670008C91837080648C93938D848D981306C0C5
:100680000288F389E02D80818F7D80830895EF9229
:10069000FF920F931F93CF93DF93EC0181E0888F3C
:1006A0009B8D8C8D98131AC0E889F989808185FF0C
:1006B00015C09FB7F894EE89FF896083E889F989AE
:1006C00080818370806480839FBF81E090E0DF91B0
:1006D000CF911F910F91FF90EF900895F62E0B8D03
:1006E00010E00F5F1F4F0F731127E02E8C8D8E11BE
:1006F0000CC00FB607FCFACFE889F989808185FF25
:10070000F5CFCE010E942503F1CFEB8DEC0FFD2F2D
:10071000F11DE35AFF4FF0829FB7F8940B8FEA89DF
:10072000FB8980818062CFCFCF93DF93EC01888DEE
:100730008823B9F0AA89BB89E889F9898C9185FD5C
:1007400003C0808186FD0DC00FB607FCF7CF8C91EA
:1007500085FFF2CF808185FFEDCFCE010E9425037A
:10076000E9CFDF91CF91089580E090E0892B29F0C7
:100770000E941B0381110E94000080E090E0892B01
:1007800029F00E94110381110E94000080E090E096
:10079000892B49F080E090E0892B29F00E9400002D
:1007A00081110E94000080E090E0892B49F080E0F8
:1007B00090E0892B29F00E94000081110C94000028
:1007C00008958FB7F8948091B2068FBF089561E0C5
:1007D000FC0184810E94B7018091B10681111092C1
:1007E000B10608958EBD00000DB407FEFDCF8EB595
:1007F00008958FEF0C94F2030F931F93CF93DF9321
:10080000EC010E949A028B010E94F9038F3F69F06C
:100810000E949A02601B710B6C177D07A8F380E0A1
:10082000DF91CF911F910F91089581E0F9CF8CBD99
:100830009DBD0895CF93DF93EC018091B1068111A6
:1008400009C081E08093B1068091FE099091FF0973
:100850000E94170460E08C81DF91CF910C94B70166
:100860008F929F92AF92BF92FF920F931F93CF935D
:10087000DF93EC01F62E49015A018E81882389F01D
:100880008F8198859C012F5F3F4F38872F8382305F
:10089000924018F40E94F903F3CFCE010E94E703BF
:1008A0001E82CE010E941A048CE291E00E94FC0399
:1008B0008F2D80640E94F20308E110E0D501C4018D
:1008C000002E04C0B695A795979587950A94D2F700
:1008D0000E94F20308501109083F8FEF180771F7C3
:1008E00085E9FF2021F028E087E8F2128FEF0E94CF
:1008F000F20310E00E94F9038A8787FF04C01F3FBC
:1009000011F01F5FF7CFDF91CF911F910F91FF90F3
:10091000BF90AF909F908F900895AF92BF92CF926B
:10092000DF92EF92FF920F931F93CF93DF93EC012F
:100930006901C801820F931F8130924050F58E816A
:10094000882379F088819981AA81BB8184179507D2
:10095000A607B70731F48F819885C816D90608F025
:1009600042C0488359836A837B838B85833039F007
:1009700089E0440F551F661F771F8A95D1F79A01AA
:10098000AB0161E1CE010E943004882389F083E04D
:100990008D83CE010E94E70380E0DF91CF911F910C
:1009A0000F91FF90EF90DF90CF90BF90AF900895A0
:1009B0000E949A025B010E94F9038A878F3F69F4C3
:1009C0000E949A026A197B096D327140A0F38FE090
:1009D0008D83CE010E94E703DCCF8E3F89F4188619
:1009E0001F8281E08E838F8198858C159D0550F440
:1009F0000E94F9038F819885019698878F83F3CFA2
:100A00008DE0E6CF6701E00EF11E0E94F903F601CA
:100A100081936F01EE15FF05C1F78F819885080F4F
:100A2000191F18870F838985882319F00115124033
:100A3000A0F08E81882389F08F8198859C012F5F9B
:100A40003F4F38872F838230924018F40E94F90379
:100A5000F3CFCE010E94E7031E8281E09ECFCF92AA
:100A6000DF92EF92FF920F93CF93DF93EC01690136
:100A700082E1411551056105710599F08B8583303F
:100A800039F089E0440F551F661F771F8A95D1F70B
:100A90009A01AB0168E1CE010E943004882319F06D
:100AA00084E08D832DC08EEF0E94F20376018EEFDD
:100AB000D81AF70181917F010E94F203EC14FD0422
:100AC000C1F78FEF0E94F2038FEF0E94F2030E94A2
:100AD000F9038A878F71853071F4011116C0CE0138
:100AE0000E94E70381E0DF91CF910F91FF90EF909B
:100AF000DF90CF90089581E18D83CE010E94E703BE
:100B0000CE010E94E70380E0EECF88E592E00E94EC
:100B1000FC03811102C085E1C4CF20E030E0A901CF
:100B20006DE0CE010E943004882311F084E1B9CF3A
:100B30000E94F9038111FACFD2CF0F934091B406EE
:100B40005091B5066091B6067091B70641155105F2
:100B50006105710599F0082F22EC36E08091C208FA
:100B60009091C3080E942F05882349F01092B40683
:100B70001092B5061092B6061092B70681E00F915A
:100B800008950F93CF93C82F8091B306811105C0AC
:100B9000C1E08C2FCF910F910895409100025091A8
:100BA000010260910202709103020C2F22EC36E0E8
:100BB0008091C2089091C3080E942F05811102C044
:100BC000C0E0E7CFCC2321F381E00E949D0588237C
:100BD000B9F31092B306DDCF8F929F92AF92BF927E
:100BE000EF92FF920F931F93CF934B015C01C42FA1
:100BF0008091000290910102A0910202B091030243
:100C000088159905AA05BB0551F181E00E94C1052F
:100C100081110BC080E0CF911F910F91FF90EF9059
:100C2000BF90AF909F908F90089582ECE82E86E061
:100C3000F82E00E012E030E020E0B501A401809140
:100C4000C2089091C3080E948D04882319F38092F2
:100C5000000290920102A0920202B092030240911F
:100C6000B3064C2B4093B30681E0D5CF8F929F9271
:100C7000AF92BF92CF92DF92EF92FF92CF9320E09C
:100C80003AE03093C3082093C208882309F46DC06A
:100C900040E060E070E0CB010E94EC0581110BC0E8
:100CA00080E0CF91FF90EF90DF90CF90BF90AF901A
:100CB0009F908F900895809180088F7789F7809119
:100CC0008C0890918D08A0918E08B0918F08843681
:100CD0009105A105B10520F3C0908808D09089083E
:100CE000E0908A08F0908B08C114D104E104F1046B
:100CF000B9F240E0C701B6010E94EC05882381F2F9
:100D00008091CD069091CE068115924049F6A09132
:100D1000D206AA2329F26091D0067091D1066115FE
:100D2000710509F4BDCF2091CF06222309F4B8CF75
:100D3000A0931E0A2093100A90E080E030E0E1E0EA
:100D4000F0E0C82FAF01082E02C0440F551F0A94CF
:100D5000E2F72417350769F041E0480F0196893022
:100D6000910579F74093190A9BCFC12CD12C7601BC
:100D7000C0CF8093190A2091D8063091D90650E04F
:100D800040E02115310541F42091E6063091E70657
:100D90004091E8065091E9062093110A3093120A17
:100DA0004093130A5093140A46015701860E971E6A
:100DB000A11CB11C80921F0A9092200AA092210AC5
:100DC000B092220AE091D306F091D406F093250A5E
:100DD000E093240AB0E00E94ED20DC01CB01880DF5
:100DE000991DAA1DBB1D8093260A9093270AA093E4
:100DF000280AB093290A25E0EE0FFF1F2A95E1F794
:100E0000E150FE4FEF2FFF27E6958E0F9F1FA11D8C
:100E1000B11D80931A0A90931B0AA0931C0AB093E9
:100E20001D0A8090D5069090D606B12CA12C811475
:100E3000910441F48090E2069090E306A090E406CD
:100E4000B090E506C81AD90AEA0AFB0AC80CD91CF0
:100E5000EA1CFB1C04C0F694E794D794C794CA9587
:100E6000D2F7C092150AD092160AE092170AF092B1
:100E7000180A85EFC8168FE0D806E104F10428F4BB
:100E80008CE08093230A81E00CCF80E125EFC2162D
:100E90002FEFD206E104F104A0F38091EE069091C9
:100EA000EF06A091F006B091F1068093260A909388
:100EB000270AA093280AB093290A80E2E2CF4F9232
:100EC0005F926F927F928F929F92AF92BF92CF92DA
:100ED000DF92EF92FF920F931F93CF93DF93EC017A
:100EE000423051056105710590F480E0DF91CF91AA
:100EF0001F910F91FF90EF90DF90CF90BF90AF9038
:100F00009F908F907F906F905F904F90089589850C
:100F10009A85AB85BC850196A11DB11D84179507E7
:100F2000A607B70710F3CB88DC88ED88FE888F8989
:100F3000803109F042C0BB27A72F962F852F48018B
:100F400059012A013B01C80ED91EEA1EFB1E8091E1
:100F5000000290910102A0910202B0910302C81612
:100F6000D906EA06FB0699F58F898031C1F5B301F0
:100F7000A201552766277727440F551F4E53594F17
:100F8000FA01918280828091B30681608093B306DA
:100F90008A89823080F08D819E81AF81B8858C0DE9
:100FA0009D1DAE1DBF1D8093B4069093B506A09302
:100FB000B606B093B70681E099CFDB01CA01E7E03E
:100FC000B695A79597958795EA95D1F7B8CF40E064
:100FD000C701B6010E94EC058111C6CF86CFB301CF
:100FE000A2014F77552766277727440F551F440FD7
:100FF000551F4E53594FFA0180829182A282B382CB
:10100000C2CF8F929F92AF92BF92CF92DF92EF9218
:10101000FF920F931F93CF93DF93FC0181859285FD
:10102000A385B4850196A11DB11D84179507A60758
:10103000B70770F480E0DF91CF911F910F91FF907F
:10104000EF90DF90CF90BF90AF909F908F900895DA
:1010500083889488A588B6888789803189F5BB27DD
:10106000A72F962F852FE9016A017B018F01BC0113
:10107000CD01680D791D8A1D9B1D80900002909006
:101080000102A0900202B090030286169706A806FD
:10109000B90601F5F8018789803111F5DD24EE24C8
:1010A000FF24F601EE0FFF1FEE53F94F808191816F
:1010B000B0E0A0E088839983AA83BB8381E0BBCFA3
:1010C000DB01CA01C7E0B695A79597958795CA95A4
:1010D000D1F7C9CF40E00E94EC058111DBCFAACF48
:1010E000E894C7F8DD24EE24FF24F601EE0FFF1F7D
:1010F000EE0FFF1FEE53F94F80819181A281B381E2
:10110000BF70D8CF4F925F926F927F92AF92BF9293
:10111000CF92DF92EF92FF920F931F93CF93DF93C3
:1011200000D01F92CDB7DEB78C0149835A836B8301
:101130007C835901C12CD12C7601412C82E0582EA0
:10114000612C712C49815A816B817C819E012F5FBA
:101150003F4FC8010E940108882339F1F8018585B5
:10116000A301920104C0220F331F441F551F8A950B
:10117000D2F7DA01C901C80ED91EEA1EFB1E498149
:101180005A816B817C818789803111F188EF9FEFD3
:10119000AFEFBFE0481759076A077B0798F2F501E0
:1011A000C082D182E282F38281E00F900F900F9093
:1011B0000F90DF91CF911F910F91FF90EF90DF90F3
:1011C000CF90BF90AF907F906F905F904F900895B9
:1011D00088EF9FEFA0E0B0E0DDCFCF93DF93FC017D
:1011E0002581222321F080E0DF91CF910895EC0149
:1011F0008091230A803159F582E08583178A108E09
:10120000118E128E8091240A9091250AB0E0A0E000
:1012100025E0880F991FAA1FBB1F2A95D1F7838B42
:10122000948BA58BB68B8CE09AE09C8F8B8F81E0A2
:101230008C831E821F82188619861A861B861C863E
:101240001D861E861F86188A198A1A8ACDCF80327B
:1012500051F683E085834091260A5091270A6091D8
:10126000280A7091290A478B508F618F728F9F01D6
:101270002D5E3F4F8CE09AE00E9482088111D3CF0F
:10128000B2CF8F929F92AF92BF92CF92DF92EF92A6
:10129000FF920F931F93CF93DF93EC018D81811108
:1012A0000EC080E0DF91CF911F910F91FF90EF90E2
:1012B000DF90CF90BF90AF909F908F9008950B8953
:1012C0001C892D893E89041715072607370748F31F
:1012D0004A015B01823031F48A869B86AC86BD86EA
:1012E00081E0E0CF81149104A104B10449F41E828D
:1012F0001F82188619861A861B861C861D86F0CFCB
:101300000A851B852C853D85EB8DFC8D858590E0C0
:101310000996B901A8014150510961097109082EC6
:1013200004C076956795579547950A94D2F775014D
:101330006401E1E0CE1AD108E108F10804C0F69496
:10134000E794D794C7948A95D2F7C416D506E606D3
:10135000F70620F0012B022B032B11F58F89988DB6
:10136000A98DBA8D8E839F83A887B9878E010A5F66
:101370001F4FC114D104E104F10409F4ADCF4E8133
:101380005F816885798598018B8D9C8D0E9401080D
:1013900091E0C91AD108E108F1088111EACF81CFA3
:1013A000C41AD50AE60AF70AE1CF3F924F925F923C
:1013B0006F927F928F929F92AF92BF92CF92DF9265
:1013C000EF92FF920F931F93CF93DF93CDB7DEB7CA
:1013D0002C970FB6F894DEBF0FBECDBF5C01DC01C9
:1013E0005B968D909C905C9716964D905D906D905D
:1013F0007C901997411451046104710409F468C088
:10140000BFEF4B1A5B0A6B0A7B0A312CF401818512
:101410009285A385B4859C01AD012F5F3F4F4F4F4F
:101420005F4F29873A874B875C87730162011D8272
:101430001E821F821886F40181859285A385B4855A
:101440002D813E814F815885281739074A075B0750
:1014500008F056C089859A85AB85BC858C159D059D
:10146000AE05BF0550F482E0C82ED12CE12CF12C42
:1014700092E0492E512C612C712C9E012F5F3F4F21
:10148000B701A601C4010E9401088823C9F189811E
:101490009A81AB81BC81892B8A2B8B2B09F1260188
:1014A00037019FEF491A590A690A790A2D813E814D
:1014B0004F8158852F5F3F4F4F4F5F4F2D833E83A6
:1014C0004F8358873FEFC31AD30AE30AF30AB3CF17
:1014D000F40140805180628073803324339496CF2E
:1014E000C414D504E604F70409F70FEF1FEF2FEF3C
:1014F0003FE0B701A601C4010E945F07811119C036
:1015000080E02C960FB6F894DEBF0FBECDBFDF9102
:10151000CF911F910F91FF90EF90DF90CF90BF90F0
:10152000AF909F908F907F906F905F904F903F9083
:101530000895D50116964D915D916D917C91199705
:10154000411551056105710539F097018601C40106
:101550000E945F078823A1F2D5011696CD92DD92F5
:10156000ED92FC921997332051F0D701C6010196F4
:10157000A11DB11DF40180839183A283B383F50182
:101580008789908DA18DB28D892B8A2B8B2B39F475
:101590008481C78AD08EE18EF28E80688483F501C3
:1015A00084818062848381E0ACCF1F93CF93DF93EB
:1015B000FC0125812223D1F1162FEC01848187FFC4
:1015C0002AC0668577858089918941E00E94EC0573
:1015D000882361F1EA8980E2E89FF0011124EE534B
:1015E000F94F309719F18D81823040F48B899C89B5
:1015F000AD89BE89848F958FA68FB78F8F89988D7F
:10160000938F828F8F89988DA98DBA8DB58BA48B7E
:101610008C818F778C83111103C08C818F7E8C839A
:10162000812FDF91CF911F910C94C10580E0DF9154
:10163000CF911F910895FF920F931F93CF93DF9344
:10164000EC018D81813041F090E080E0DF91CF911D
:101650001F910F91FF9008958C8181FFF5CF82FD3E
:101660001BC00091C2081091C308C8010E941A044F
:101670000E94F903F82EC8010E94E7038FEFF812C9
:10168000E3CF8C8185FF1BC060E0CE010E94D50AAC
:101690008C818F7D8C83D8CF4B895C896D897E89C5
:1016A0008A859B85AC85BD8584179507A607B707F6
:1016B000C1F2CE010E9441098111D3CFC5CF409123
:1016C000B4065091B5066091B6067091B706452BE9
:1016D000462B472B21F080E00E949D05B5CF80610D
:1016E0008C832A853B85317080E092E0821B930BCE
:1016F000ADCFCF93DF93EC0161E00E94D50A882340
:1017000011F01D8281E0DF91CF9108952F923F92D9
:101710004F925F926F927F928F929F92AF92BF9201
:10172000CF92DF92EF92FF920F931F93CF93DF93AD
:1017300000D01F921F92CDB7DEB77C015B01342E23
:101740005D83DC0115968C911597813009F0CEC030
:1017500014962C9021FECAC022FCB4C0C32CDD809C
:1017600022947FE027222094B22DB1702B2ED70136
:101770001A964D915D916D917C911D97C114D10484
:1017800009F428C15B968D919C915C97FC01748053
:101790007A948A019B0169E03695279517950795FC
:1017A0006A95D1F770228A011170711020C001155D
:1017B0001105E9F416964D915D916D917C91199703
:1017C000411551056105710509F099C057968D9134
:1017D0009D910D90BC91A02D0097A105B10509F038
:1017E000B0C0C7010E94D509882309F47FC080E0FA
:1017F00092E0801B910B46018C159D0508F44C016D
:10180000D7015B964D915C915C9716968D919D9159
:101810000D90BC91A02D0297A109B109FA0125856F
:1018200004C0880F991FAA1FBB1F2A95D2F74685AF
:10183000578560897189840F951FA61FB71F9C016A
:10184000AD01270D311D411D511D29013A018114A2
:1018500032E0930609F07BC0809100029091010272
:10186000A0910202B091030284159505A605B70563
:1018700059F48FEF9FEFDC018093000290930102F7
:10188000A0930202B0930302022D9501B301A201BD
:101890008091C2089091C3080E942F05882331F1DE
:1018A0009EEFB91AC818D908F70182859385A485D7
:1018B000B585880D991DA11DB11D82879387A487C9
:1018C000B58755CFF7014389548965897689828523
:1018D0009385A485B585481759076A077B0709F4DE
:1018E0003DCFC7010E944109811138CF81E090E0CE
:1018F000D70113969C938E93129780E007C09E01A8
:101900002F5F3F4F0E940108811102C090E079C013
:1019100089819A81AB81BC81F701238D348DF901D6
:10192000278948EF5FEF60E070E0203121F048EF59
:101930005FEF6FEF7FE084179507A607B70708F002
:1019400050CFF70186839783A087B18750CF0115C9
:10195000110599F5D7011A964D915D916D917C9184
:101960001D9753968D919D910D90BC91A02D481778
:1019700059076A077B0708F181E00E94C1058823A7
:1019800009F4B4CF40920002509201026092020228
:10199000709203028091B30681608093B306C80100
:1019A0008E53994FD5019C01280D391DFC012E172E
:1019B0003F0759F04D914193FACF41E0C301B20185
:1019C0000E94EC058111EBCF91CF281B390BA20EA1
:1019D000B31E68CFF70183899489A589B6898417D6
:1019E0009507A607B70738F48481438B548B658B22
:1019F000768B80688483F701848183FD1AC0832DF0
:101A00009D810F900F900F900F900F90DF91CF91CD
:101A10001F910F91FF90EF90DF90CF90BF90AF900C
:101A20009F908F907F906F905F904F903F902F90FE
:101A3000089561E0C7010E94D50A882309F456CFB2
:101A4000DECFCF93DF931F92CDB7DEB7698341E03E
:101A500050E0BE016F5F7F4F0E94860B0F90DF91B9
:101A6000CF910895FC01DB0112968D919C91139703
:101A70009383828388E692E09183808314968C918D
:101A80001497848315968C911597858316964D919E
:101A90005D916D917C91199746835783608771871B
:101AA0001A964D915D916D917C911D974287538758
:101AB000648775871E964D915D916D917C915197CC
:101AC00046875787608B718B52968C915297828B89
:101AD00053964D915D916D917C915697438B548BAC
:101AE000658B768B57964D915D916D917C915A9750
:101AF000478B508F618F728F5B968D919C91948FE5
:101B0000838F0895FC01818D928D009719F061E01B
:101B10000C94D50A0895DC015996ED91FC9130970B
:101B2000B9F083899489A589B689428553856485EE
:101B30007585841B950BA60BB70B811520E89207C2
:101B4000A105B10538F08FEF9FE7A0E0B0E0089560
:101B500090E080E00895DC0159968D919C9100976A
:101B600039F0DC01ED91FC910480F581E02D1994B0
:101B700090E080E00895CF93DF93EC01E98DFA8D3A
:101B8000309749F481E090E09B838A8390E080E085
:101B9000DF91CF91089513821282898D9A8D0E94D0
:101BA000860BE98DFA8D22813381232B59F7F0CFF3
:101BB000CF93DF931F92CDB7DEB76983DC01ED9140
:101BC000FC910280F381E02D41E050E0BE016F5FA7
:101BD0007F4F19950F90DF91CF9108952F923F92EB
:101BE0004F925F926F927F928F929F92AF92BF922D
:101BF000CF92DF92EF92FF920F931F93CF93DF93D9
:101C000000D0CDB7DEB7FC018581811118C08FEF00
:101C10009FEF0F900F900F90DF91CF911F910F9139
:101C2000FF90EF90DF90CF90BF90AF909F908F90FC
:101C30007F906F905F904F903F902F900895848198
:101C400080FFE5CF438954896589768982859385AC
:101C5000A485B585312C212C481759076A077B07C5
:101C600019F022242394312C6F012101CE01019619
:101C70003C01DF011696BB83AA834114510409F489
:101C8000C5C0F60142855385648575854A01F1E03A
:101C90009F22D6015B968D919C915C978A019B0156
:101CA000E9E03695279517950795EA95D1F71596AA
:101CB000EC91E230E9F5FC01628D738D848D958D98
:101CC000600F711F821F931FA12C22E0B22EA81853
:101CD000B9084A145B0408F45201F601248126FD78
:101CE00004C0A114F2E0BF0671F40091000210914B
:101CF00001022091020230910302061717072807FC
:101D0000390709F05EC040E00E94EC05882309F421
:101D10007ECFC4018E53994FD3019C012A0D3B1DE8
:101D2000FC012E173F0709F46CC041914D93F9CF88
:101D3000DC011496BC90BA94B0228114910479F419
:101D4000B1100DC0452B462B472B69F5F60187894D
:101D5000908DA18DB28D86839783A087B187D601A0
:101D60005B96ED91FC915C9716966D917D918D91AE
:101D70009C9119976250710981099109258504C0C8
:101D8000660F771F881F991F2A95D2F7068517853A
:101D900020893189600F711F821F931F6B0D711D88
:101DA000811D911D91CFD60116964D915D916D913A
:101DB0007C9119972A813B810E9401088111CFCF24
:101DC00026CF730185019401AB01BC018091C2084B
:101DD0009091C3080E948D04882309F418CF6A0CDF
:101DE0007B1CF60182859385A485B5858A0D9B1D94
:101DF000A11DB11D82879387A487B5874A185B0808
:101E00003CCF281B390B620E731EEBCF2A9423287C
:101E100009F0FDCE898190E0FCCEFC01818D928D90
:101E2000009711F00C94EE0D8FEF9FEF08950F9334
:101E30001F93CF93DF93EC01898D9A8D10E000E022
:101E4000009799F00E94EE0D8C010F3F100769F08A
:101E5000898D9A8DFC014285538564857585415035
:101E60005109610971090E944109C801DF91CF91AF
:101E70001F910F91089585ED8093BC008091BC0067
:101E800084FDFCCF1092AB06089520918706260FA3
:101E90003327331F21323105ECF42091AB06FC01CE
:101EA00090E080E0243069F082E00895A0918706F8
:101EB0002191AC014959594FA40FB52FB11D2C9355
:101EC0000196861798F380918706680F60938706BE
:101ED00080E0089581E0089508958FEF9FEF0895C1
:101EE0008FEF9FEF08958091660690E09195819520
:101EF00091090895CF93DF93CB01EA01642F0E94EB
:101F0000450FCE01DF91CF910895CF93DF931F92BC
:101F1000CDB7DEB7698361E0CE0101960E94450F1F
:101F200081E090E00F90DF91CF91089590E080E004
:101F30000895CF92DF92EF92FF921F93CF93DF939A
:101F4000EC0180E2689FF0011124EE53F94F938574
:101F5000917161F0842F827449F080E0DF91CF911C
:101F60001F91FF90EF90DF90CF900895142F6A8B10
:101F70008091000290910102A0910202B0910302AF
:101F80008E879F87A88BB98BC488D588F12CE12CCC
:101F90007601DD24CC24CF8AD88EE98EFA8E828D0C
:101FA000938DB0E0A0E0AC01BD014C295D296E2904
:101FB0007F294F8B588F698F7A8F83858871B1F411
:101FC000848D958DA68DB78D8B8B9C8BAD8BBE8BA9
:101FD00081E08D831F701C831E821F8218861986E4
:101FE0001A861B861C861D8681E0B8CF803109F0D9
:101FF000B4CF9E012D5E3F4F8B8D9C8D0E94820839
:10200000882309F4AACF84E0E4CFFB0101900020EB
:10201000E9F73197AF01461B570B0C94A702CF93FA
:10202000DF93BC0181E699E00E940510EC0162E8B3
:1020300072E081E699E00E9405108C0F9D1FDF91F0
:10204000CF9108958F929F92AF92BF92CF92DF92DD
:10205000EF92FF920F931F93CF93DF93CDB7DEB72D
:10206000A1970FB6F894DEBF0FBECDBF6C01990FDC
:10207000EE08FF08F7FE4BC06DE281E699E00E9492
:1020800047038C0122273327A9012C193D094E094A
:102090005F0919A2CE0181967C019AE0892E912CCC
:1020A000A12CB12CCA01B901A50194010E940721FC
:1020B000605DF70162937F012115310541055105EE
:1020C00089F790E080E0309729F0BF0181E699E040
:1020D0000E940510080F191F62E872E081E699E07E
:1020E0000E940510800F911FA1960FB6F894DEBFD5
:1020F0000FBECDBFDF91CF911F910F91FF90EF9059
:10210000DF90CF90BF90AF909F908F900895A701E0
:10211000960119A28E010F5D1F4F8AE0C82ED12CA7
:10212000E12CF12CCA01B901A70196010E940721F7
:10213000605DF80162938F0121153105410551055C
:1021400089F7309739F0BF0181E699E00E940510C8
:102150008C01C2CF10E000E0BFCF0F931F93CF934D
:10216000DF93EC01FB0144815581608171810E9404
:10217000A7028C0162E872E0CE010E940510800F78
:10218000911FDF91CF911F910F910895CF93DF930E
:10219000EC0188819981009711F00E94CD2119826C
:1021A00018821D821C821B821A82DF91CF910895B2
:1021B000FC0180819181009711F00C94CD2108954C
:1021C000CF93DF93DC0114962D913C911597232B2F
:1021D00079F0FB01CD91DC9160817181CE010E948B
:1021E0006E23009729F08C1B9D0BDF91CF910895F2
:1021F0008FEF9FEFFACF0F931F93CF93DF938C0155
:10220000EB01FC01808191810097E1F06881798187
:1022100061157105A9F0428153812C813D814217DE
:10222000530770F00E9458238C819D81F80195839B
:1022300084831D821C82DF91CF911F910F9108959D
:102240000E94CD2188819981F801918380838A81C0
:102250009B81938382838C819D8195838483198262
:1022600018821B821A82E5CF0F931F93CF93DF93BF
:10227000EC0188819981009759F02A813B812617CA
:10228000370730F081E0DF91CF911F910F910895D2
:102290008B016F5F7F4F0E945622009759F0998300
:1022A00088831B830A832C813D81232B59F7FC01F2
:1022B0001082E8CF80E0E7CFEF92FF920F931F9359
:1022C000CF93DF936115710541F480E0DF91CF91E9
:1022D0001F910F91FF90EF90089541155105B1F0B6
:1022E0007B01EC010C811D81040F151FB8010E94B8
:1022F0003411882351F3288139818C819D81B70164
:10230000820F931F0E9458231D830C8381E0DECF30
:10231000CF93DF93EC01FB01448155816081718192
:102320000E945C11811103C0CE010E94C610CE0133
:10233000DF91CF910895EF92FF920F931F93CF9368
:10234000DF93EC017B018A01BA010E9434118111F3
:102350000BC0CE010E94C610CE01DF91CF911F911C
:102360000F91FF90EF9008951D830C83B701888132
:1023700099810E945823F0CFEF92FF920F931F9301
:10238000CF93DF93CDB7DEB762970FB6F894DEBF79
:102390000FBECDBF8C01CB01F801118210821382D8
:1023A0001282158214824AE09E012F5F3F4F79010D
:1023B000B9010E94061EF70101900020E9F731974C
:1023C000AF014E195F09B701C8010E949B116296C7
:1023D0000FB6F894DEBF0FBECDBFDF91CF911F9136
:1023E0000F91FF90EF900895FB01DC0111961C9274
:1023F0001E9213961C921E92129715961C921E9274
:1024000014978617970749F06081718161157105EE
:1024100021F0448155810C949B110895FC01118297
:1024200010821382128215821482FB010190002017
:10243000E9F73197AF01461B570B0C949B11CF92D4
:10244000DF92EF92FF920F931F93CF93DF93CDB75D
:10245000DEB72C970FB6F894DEBF0FBECDBFBC0120
:1024600084EC98E00E94AD100E949A026B017C01FE
:1024700064E872E0CE0107960E940E120E949A0252
:102480006C197D098E099F09603D77408105910592
:10249000B0F484EC98E00E940503892B79F384EC76
:1024A00098E00E94E30289831A8241E050E0BE0175
:1024B0006F5F7F4FCE0107960E945C11EACF65E8FF
:1024C00072E0CE0101960E940E12BE01695F7F4F3D
:1024D000CE0101960E948811BC0181E699E00E941C
:1024E000AD10CE0101960E94D81063E972E0CE01D2
:1024F00001960E940E12BE016F5F7F4FCE010796BC
:102500000E94E0108C01CE0101960E94D8100F3F6E
:102510001F4FC9F486E992E00E940F1010E0CE012F
:1025200007960E94D810812F2C960FB6F894DEBF24
:102530000FBECDBFDF91CF911F910F91FF90EF9014
:10254000DF90CF90089511E0EACF8F929F92AF92E3
:10255000BF92CF92DF92EF92FF920F931F93CF9390
:10256000DF9300D000D0CDB7DEB78C0149015A010E
:1025700084EC98E00E94AD100E949A026B017C01ED
:1025800064E872E0C8010E940E120E949A026C195F
:102590007D098E099F09681579058A059B05A8F4B0
:1025A00084EC98E00E940503892B79F384EC98E091
:1025B0000E94E30289831A8241E050E0BE016F5F0E
:1025C0007F4FC8010E945C11EBCF65E872E0CE013D
:1025D00001960E940E12B801CE0101960E94881148
:1025E000BC0181E699E00E94AD10CE0101960E94E7
:1025F000D810C80126960FB6F894DEBF0FBECDBF27
:10260000DF91CF911F910F91FF90EF90DF90CF90CE
:10261000BF90AF909F908F9008953F924F925F929E
:102620006F927F928F929F92AF92BF92CF92DF92E2
:10263000EF92FF920F931F93CF93DF9300D000D0C0
:1026400000D01F921F92CDB7DEB77C01FE013196FC
:10265000CE010C966F0130E23193E817F907E1F7EC
:10266000DA0130E087E09D91B92E992309F43CC04E
:102670009E32F1F48A30C9F480E02B960FB6F894BC
:10268000DEBF0FBECDBFDF91CF911F910F91FF90A5
:10269000EF90DF90CF90BF90AF909F908F907F9002
:1026A0006F905F904F903F90089538E08AE0DBCFC5
:1026B000E0E8F1E04491442321F031969413FACFFD
:1026C000DBCF8317C8F24FED490F4E35A8F64FE91F
:1026D000490F4A3118F440EEB42EB90EF601E30F5B
:1026E000F11DB0823F5FBFCF8981803229F2322E47
:1026F0008B01DB015B968D919C915C97F701948F28
:10270000838F16961D921D921D921C921997FB01A4
:102710001286138614861586F80182859385A48512
:10272000B585438954896589768984179507A607F5
:10273000B70708F04DC025E0B695A7959795879502
:102740002A95D1F7F82FFF70AF2ED80115968C91EE
:10275000823008F491CFC8010E94EE0D97FD8CCF16
:10276000F80182859385A485B5854F96A11DB11D7D
:1027700082879387A487B587F0E2AF9EB0011124CA
:102780006E53794F6115710509F476CFDB018C9199
:10279000882341F0853E09F062C0BB2029F0BB24AC
:1027A000B394BACFB1100EC0F701A28A8091000293
:1027B00090910102A0910202B0910302868797874F
:1027C000A08BB18BDB018C918111E9CFBB24B39439
:1027D000832D8271823109F04FCFBB2009F44DC0A7
:1027E000F701668577858089918941E00E94EC0533
:1027F000882309F441CFD70152968C91B0E28B9F88
:10280000C00111248E53994F009709F435CFFC0174
:102810003A9626E1DF011D922A95E9F72BE0F601B1
:10282000DC0101900D922A95E1F721E238E2FC01EA
:10283000318B208B40E058E057874687338B228BC3
:10284000318F208F578B468B81E00E94C1058823F2
:1028500009F412CF432DD70152966C910AC04BE078
:1028600050E0C6010E943723892B09F055CF432D34
:102870006A2DC7010E94990F00CFF801858182302F
:1028800009F4FACEC8010E94D509882309F4F4CED0
:10289000D8015B96ED91FC915C9716968D909D907A
:1028A000AD90BC901997B2E08B1A9108A108B108BD
:1028B000858504C0880C991CAA1CBB1C8A95D2F77C
:1028C00086859785A089B189880E991EAA1EBB1E90
:1028D000848124013501480E511C611C711C841433
:1028E0009504A604B70409F1E1E04E1A5108610805
:1028F000710881E00E94C105882309F4BDCEE2EC95
:10290000F6E0119282EC98E08E179F07D1F7409283
:1029100000025092010260920202709203028091C2
:10292000B30681608093B306DACFD8015B96ED9150
:10293000FC91258580E092E0A0E0B0E004C0880F23
:10294000991FAA1FBB1F2A95D2F7F8014389548902
:1029500065897689840F951FA61FB71F838B948B7B
:10296000A58BB68BD70152961C9282EC96E04FCF86
:10297000EF92FF920F931F93CF93DF93EC017B01B4
:102980008A011B821A8288EE93E0A0E0B0E08C837B
:102990009D83AE83BF8384E792E0998388838DE132
:1029A00090E00E9431219A8F898F009779F02DE174
:1029B000F701DC0101900D922A95E1F74CE050E01F
:1029C000B801CE010C960E945F23188EDF91CF9143
:1029D0001F910F91FF90EF9008952F923F924F9289
:1029E0005F926F927F928F929F92AF92BF92CF929F
:1029F000DF92EF92FF920F931F93CF93DF93CDB7A8
:102A0000DEB7C45AD1090FB6F894DEBF0FBECDBFF2
:102A100080EB92E00E940F108E01025E1F4F65EC6A
:102A200072E0C8010E940E1228EE33E040E050E050
:102A3000B801CE0101960E94A512CE0101960E9416
:102A4000D810C8010E94D81081ED92E00E940F10AA
:102A500060E272E0CE0101960E940E1260EE72E01A
:102A6000C8010E940E12BE016F5F7F4FC8010E9415
:102A700088117C0141E050E062EF72E00E945C113D
:102A8000811103C0C7010E94C610B701CE0189564B
:102A90009F4F0E94F411C8010E94D810CE010196E8
:102AA0000E94D810BE0169567F4FC8010E94F411E0
:102AB00028EE33E040E050E0B801CE0101960E94DC
:102AC000A512CE0101960E94D810C8010E94D8100C
:102AD00084EF92E00E940F1061E173E0C8010E9450
:102AE0000E1228E833E140E050E0B801CE01019633
:102AF0000E94A512BE016F5F7F4F85E59AE00E949C
:102B0000FB10CE0101960E94D810C8010E94D81077
:102B100068EB7BE080E090E00E9468026E012FE9A4
:102B2000C20ED11C8FEF9FEFD6018D939C931E0197
:102B3000BDE92B0E311CF1011182108261E273E0BC
:102B400081E699E00E940510D6018D919C910E942A
:102B5000221064E373E081E699E00E940510F10120
:102B6000808191810E94221064E872E0CE018F562C
:102B70009F4F0E940E1260E473E0CE0101960E9406
:102B80000E12BE016F5F7F4F85E59AE00E94E01054
:102B90007C01CE0101960E94D810FFEFEF16FF06D0
:102BA00009F497C14701A090590AB0905A0AAE148F
:102BB000BF0410F44501570164E872E0CE010196AC
:102BC0000E940E12E090590AF0905A0A8E149F0447
:102BD00050F5AE14BF0408F47501E091550AF09168
:102BE000560AEE0DFF1DB08010826091550A70915B
:102BF000560A680D791D6115710509F457C1FB016D
:102C000001900020E9F73197AF01461B570BCE0129
:102C100001960E949B118091550A9091560AE80EE8
:102C2000F91ED701BC92BE016F5F7F4FCE018F5658
:102C30009F4F0E94FB10CE0101960E94D8106DE4B8
:102C400073E0CE0101960E940E12BE016F567F4FB7
:102C5000CE0101960E948811BC0181E699E00E9494
:102C6000AD10CE0101960E94D8103F922F92DF92B4
:102C7000CF928DE693E09F938F93CE56DF4F88815E
:102C8000C259D0408F93CF56DF4F8881C159D04071
:102C90008F930E94B8230FB6F894DEBF0FBECDBF4E
:102CA000029709F008C161E273E081E699E00E94B1
:102CB0000510D6018D919C910E94221064E373E06F
:102CC00081E699E00E940510F101808191810E94C6
:102CD0002210D6018D919C91883C910509F036C156
:102CE00088EF93E00E940F1067E174E0CE018557F2
:102CF0009F4F0E940E12912C812C98E6692E92E033
:102D0000792EF101A080B1808A149B040CF027C2B7
:102D1000A818B908A114F4E0BF061CF0A12C84E0A7
:102D2000B82E60E274E081E699E00E940510C501CA
:102D30000E94221060E274E081E699E00E94051092
:102D4000D1018D919C910E942210B501CE01019676
:102D50000E94BC11B401C8010E94BC116EE274E073
:102D6000CE01CB960E940E12B801CE01CB960E94E6
:102D700088117C0141E050E06BE374E00E945C113B
:102D8000811103C0C7010E94C610BE016F5F7F4F53
:102D9000C7010E948811BC01CE018B579F4F0E9432
:102DA000F411CE01CB960E94D810C8010E94D81011
:102DB000CE0101960E94D8106DE374E0CE01019619
:102DC0000E940E12BE016B577F4FCE0101960E94EA
:102DD0008811BC0181E699E00E94AD10CE010196F8
:102DE0000E94D810BE016B577F4FCE0101960E9402
:102DF000F41128EB3BE040E050E0BE016F5F7F4FF5
:102E0000CE0181589F4F0E94A512CE0101960E94CB
:102E1000D810BE0161587F4FCE018D589F4F0E9440
:102E2000F411BE0165577F4FCE0187589F4F0E9416
:102E3000F411EB96EEADFFADEB97CF55DF4FF98375
:102E4000E883C15AD04019A218A27F8E6E8E1BA2B1
:102E50001C821B827A8269821E82C8010E94ED0850
:102E6000CF55DF4FC880D980C15AD0409E012F5F17
:102E70003F4F790128016FE270E0C6010E944D23A7
:102E8000009709F4CBC0D6012C912F3209F061C014
:102E9000BFEFCB1ADB0A9E2D8F2D7201492E582EC3
:102EA000942D852D2701E92EF82EE5CFCE01019630
:102EB0000E94C610B0CE84E893E00E940F106EE925
:102EC00073E0C8010E940E1224EF31E040E050E0B0
:102ED0000DC08AEA93E00E940F106EE973E0C8010A
:102EE0000E940E1228EE33E040E050E0B801CE011F
:102EF00001960E94A512CE0101960E94D810C80129
:102F00000E94D810CE018F569F4F0E94D810CE013C
:102F100089569F4F0E94D810CC55DF4F0FB6F894BA
:102F2000DEBF0FBECDBFDF91CF911F910F91FF90FC
:102F3000EF90DF90CF90BF90AF909F908F907F9059
:102F40006F905F904F903F902F90089589EC93E0A1
:102F5000B4CF8C198D3008F08CE0E82FF0E0CD551F
:102F6000DF4FF983E883C35AD040AF01B601CE01E9
:102F7000885A9F4F0E945F23E8E5F0E0EC0FFD1FA9
:102F8000CD55DF4F28813981C35AD040E20FF31F5E
:102F90001082C7010E94790BD70115968C91882366
:102FA00039F11EAE1DAE7CAE6BAE21961FAE2197E1
:102FB000D12CC12CCF55DF4F88819981C15AD04087
:102FC000C80ED91ED6018C91811136C0BE01655C38
:102FD0007F4FCE0101960E94320D4DE454E0BE01B8
:102FE0006F5F7F4FCE01885A9F4F0E94B81449C02F
:102FF00021E0AE01485A5F4FB201C7010E940D1394
:10300000882379F2CD55DF4FE881F981C35AD0404A
:10301000CE0EDF1EC2010E94790B42CFCF55DF4F8B
:1030200028813981C15AD040C21AD30AB201CE01D7
:10303000CB960E94320DBECF19A218A27F8E6E8E43
:103040001BA221968FAD2197811169C06C961FAE8E
:103050001EAE6C9788EE93E0A0E0B0E0A0968CAF37
:103060009DAFAEAFBFAFA09784E792E06A969FAFE7
:103070008EAF6A97E3961FAE1EAEE397A5961FAE7E
:10308000A597E396EEADFFADE397309709F464C0E2
:103090008581882309F460C0E9964EAD5FADE9975C
:1030A000E5966EAD7FADE597CE01885A9F4F0E94A1
:1030B000BB0DE3968EAD9FADE397009761F00E9444
:1030C000790BE3968EAD9FADE3970E94CD21E396F9
:1030D0001FAE1EAEE3978FE494E00E940F10CE0166
:1030E00087589F4F0E94D810CE018D589F4F0E9445
:1030F000D8108A0C9B1C67E874E081E699E00E9476
:103100000510C4010E942210CE0181589F4F0E94D9
:10311000D810CE018B579F4F0E94D810F2CD27E1D7
:10312000A601BE01655C7F4FC8010E940D13882374
:1031300009F48CCFCE01CB960E94790B49A95AA9EC
:103140006BA97CA9C8010E944109B801CE01019672
:103150000E94320DA60143CF87E694E0BECF8FE9EF
:1031600094E00E940F106EE973E0C8010E940E12F5
:1031700024EF31E040E050E0B801CE0101960E941A
:10318000A512CE0101960E94D810C8010E94D81045
:10319000CE0185579F4FB4CE1F920F920FB60F925C
:1031A00011242F933F938F939F93AF93BF9380915D
:1031B000BA069091BB06A091BC06B091BD063091B5
:1031C000B90623E0230F2D3768F126E8230F029676
:1031D000A11DB11D2093B9068093BA069093BB063A
:1031E000A093BC06B093BD068091BE069091BF0629
:1031F000A091C006B091C1060196A11DB11D80939A
:10320000BE069093BF06A093C006B093C106BF91BF
:10321000AF919F918F913F912F910F900FBE0F9083
:103220001F9018950196A11DB11DD4CF1F920F922A
:103230000FB60F9211240BB60F922F933F934F931B
:103240005F936F937F938F939F93AF93BF93EF930E
:10325000FF9384EC98E00E942503FF91EF91BF91CA
:10326000AF919F918F917F916F915F914F913F911E
:103270002F910F900BBE0F900FBE0F901F901895BF
:103280001F920F920FB60F9211240BB60F922F932D
:103290008F939F93EF93FF93E091D408F091D5081B
:1032A0008081E091DA08F091DB0882FD1DC09081F9
:1032B0008091DD088F5F8F732091DE08821741F0C7
:1032C000E091DD08F0E0EC53F74F958F8093DD0837
:1032D000FF91EF919F918F912F910F900BBE0F90C7
:1032E0000FBE0F901F9018958081F2CF1F920F9202
:1032F0000FB60F9211240BB60F922F933F934F935B
:103300005F936F937F938F939F93AF93BF93EF934D
:10331000FF9381E699E00E942503FF91EF91BF9111
:10332000AF919F918F917F916F915F914F913F915D
:103330002F910F900BBE0F900FBE0F901F901895FE
:103340001F920F920FB60F9211240BB60F922F936C
:103350008F939F93EF93FF93E0917109F09172091E
:103360008081E0917709F091780982FD1DC09081FC
:1033700080917A098F5F8F7320917B09821741F0CA
:10338000E0917A09F0E0EF59F64F958F80937A0932
:10339000FF91EF919F918F912F910F900BBE0F9006
:1033A0000FBE0F901F9018958081F2CF1F920F9241
:1033B0000FB60F9211240BB60F922F933F934F939A
:1033C0005F936F937F938F939F93AF93BF93EF938D
:1033D000FF938091B900887F803609F44DC008F0D2
:1033E00040C0883209F4A7C028F5803109F49BC099
:1033F000C8F4882309F4F1C0883009F494C0FF911F
:10340000EF91BF91AF919F918F917F916F915F915C
:103410004F913F912F910F900BBE0F900FBE0F90C9
:103420001F901895883109F486C0803241F7809347
:10343000AA0614C0803409F497C040F48033B9F36D
:103440008833E9F68093AA0685ECA8C0803509F494
:1034500081C0883509F490C0883489F60E943B0FFA
:10346000CECF883909F486C038F5883729F050F472
:10347000883611F0803719F683E08093AB061092FE
:10348000A90655C0883809F475C0803919F080380C
:1034900009F0B5CF8091A906803208F06BC0E091A9
:1034A000A90681E08E0F8093A9068091BB00F0E011
:1034B000E757F94F80833BC0803B39F0D0F4803A26
:1034C00009F471C0883A09F09ACF84E08093AB0682
:1034D0001092880610928706F0E0E0E0199580913E
:1034E000870681110FC081E08093870610926706DE
:1034F00009C0803C09F4A8CF883C09F4A5CF883BDB
:1035000009F07DCFE091880681E08E0F80938806D8
:10351000F0E0E959F94F80818093BB0090918806D3
:103520008091870625C08091B0068093BB0085EC12
:103530008093BC0064CF9091AF068091AE0698173F
:1035400028F5E091AF0681E08E0F8093AF06F0E0A2
:103550008081EBCFE091AF0681E08E0F8093AF06C4
:103560008091BB00F0E080839091AF068091AE0621
:103570009817E8F285E8DCCFE091AF0681E08E0F86
:103580008093AF068091BB00F0E080838091AD0610
:10359000811164CF81E08093AC0684EA8093BC0003
:1035A0001092AB062CCF85EC8093BC001092AB063A
:1035B0008091A906803230F4E091A906F0E0E75747
:1035C000F94F10826091A90670E089E896E0F0E07A
:1035D000E0E019951092A90612CF1092AA063ECFEC
:1035E000E4ECF8E01382128288EE93E0A0E0B0E011
:1035F00084839583A683B78326E532E031832083D5
:103600004DEC50E0558744874CEC50E05787468797
:1036100048EC50E0518B408B49EC50E0538B428B8F
:103620004AEC50E0558B448B4EEC50E0578B468B68
:10363000118E128E138E148EE1E6F9E0138212823F
:1036400084839583A683B7833183208325EC30E080
:103650003587248724EC30E03787268720EC30E05C
:10366000318B208B21EC30E0338B228B22EC30E04D
:10367000358B248B26EC30E0378B268B118E128E07
:10368000138E148EEEEFF9E020E520831182E0E046
:10369000FAE0158216821186138642E050E060E05F
:1036A00070E0448755876687778713A215A614A60E
:1036B00028E632E033A722A717A6E7E6FAE013824E
:1036C000128284839583A683B78384E792E09183F3
:1036D0008083128E118E148664E872E081E69AE08F
:1036E0000E940E1264E872E08BE59AE00E940E12CE
:1036F00064E872E085E59AE00E940E1264E872E0E8
:103700008FE49AE00E940E1264E872E089E49AE085
:103710000C940E12CF93DF93CDB7DEB7E8970FB6B8
:10372000F894DEBF0FBECDBF789484B5836084BDAE
:1037300085B5836085BD80916E00816080936E0049
:1037400082E080938100909181009160909381004C
:10375000909180009160909380009091B10094606E
:103760009093B1009091B00091609093B0009091CF
:10377000910093609093910090919000916090934C
:1037800090009091A10093609093A1009091A0006F
:1037900091609093A00090912101936090932101FA
:1037A0009091200191609093200197E890937A0086
:1037B0001092C100E0917109F09172098083E0914B
:1037C0006D09F0916E091082E0916F09F091700916
:1037D00030E1308310927909E0917509F091760912
:1037E00026E02083E0917309F09174099081986933
:1037F0009083E0917309F091740990819F7D90838B
:10380000E091D408F091D5088083E091D008F09140
:10381000D1081082E091D208F091D3083083109241
:10382000DC08E091D808F091D9082083E091D6080F
:10383000F091D708808188698083E091D608F09163
:10384000D70880818F7D808389EC94E00E940F10DF
:1038500064EF71E080E090E00E94680280912F0A9E
:10386000882321F08AE29AE00E94790B10920B0AD9
:103870001092090A1092060A1092050A85E38093B5
:10388000040A0E949A028B018091040A0E94980106
:1038900061E08091040A0E94B701FFB6F89480911C
:1038A000B806811124C0EFE4F2E08491E5EAF2E089
:1038B0009491E82FF0E0EE0FFF1FE050FE4FA5912E
:1038C000B491EC91E92321F461E085E30E94B70112
:1038D00085E30E9498018CB580618CBD8CB58064B5
:1038E0008CBD84E30E94980183E30E94980180913B
:1038F000B8068F5F8093B806FFBE82E58093FE090D
:103900001092FF098091FE099091FF090E9417040F
:103910002AE0F22E8FEF0E94F203FA94F110FACF10
:1039200080E09AE00E941A0420E030E0A90160E003
:1039300080E09AE00E943004F82E80930A0A81E029
:10394000F81689F00E949A02601B710B613D774066
:1039500058F381E08093050A80E09AE00E94E70333
:1039600084EF94E07CC02AEA31E040E050E068E077
:1039700080E09AE00E94300482FF2AC0F0920B0A95
:1039800080910B0AC12CD12C7601823029F4C12CF4
:10399000D12CE12C80E4F82E20E030E0A90167E38F
:1039A00080E09AE00E943004A701960169E280E07D
:1039B0009AE00E94300480930A0A8823D1F00E9482
:1039C0009A02601B710B613D774030F388E0C2CFF3
:1039D00094E0F92E0E94F90380930A0AFA94F110F8
:1039E000F9CF8A3A11F082E0B5CF82E080930B0ADA
:1039F000C7CF80910B0A8230D1F420E030E0A901DA
:103A00006AE380E09AE00E943004882311F086E0A7
:103A1000A1CF0E94F903807C803C19F483E080935D
:103A20000B0A0E94F9030E94F9030E94F90380E047
:103A30009AE00E94E70380E58093FE091092FF0957
:103A400081E00E943606882309F4C5C08AE29AE024
:103A50000E94ED08882309F483CF8FED94E00E9443
:103A60000F108BE095E00E940F1060E375E0CE012F
:103A7000C3960E940E1228EE33E040E050E0BE01F3
:103A80006D5C7F4F8E010F5F1F4FC8010E94A51212
:103A9000C8010E94D810CE01C3960E94D81087E3B7
:103AA00095E00E940F1062E575E0CE01C3960E947A
:103AB0000E1228EE33E040E050E0BE016D5C7F4F17
:103AC000C8010E94A512C8010E94D810CE01C39659
:103AD0000E94D81068EE73E080E090E00E946802D7
:103AE00065E575E0CE01C3960E940E1228EE33E024
:103AF00040E050E0BE016D5C7F4FC8010E94A512FE
:103B0000C8010E94D810CE01C3960E94D8108EE53D
:103B100095E00E940F1065E575E0C8010E940E1245
:103B2000C8010E941F12F82EC8010E94D81089E710
:103B300095E0FF2009F446C06DE975E0C8010E94D8
:103B40000E12C8010E941F12F82EC8010E94D81040
:103B500088EA95E0FF20B1F169EC75E0C8010E94A8
:103B60000E12C8010E941F12F82EC8010E94D81020
:103B700086ED95E0FF2031F18AE092E09F938F93EC
:103B80008DEF95E09F938F931F930F930E9488234F
:103B9000B801CE01C3960E940E12CE01C3960E94B8
:103BA0001F12182FCE01C3960E94D8100F900F90AD
:103BB0000F900F900F900F9084E196E0112311F079
:103BC0008EE296E00E940F100E94ED1481E596E0CF
:103BD0000E940F10FFCF80E00E943606882309F470
:103BE000BFCE34CF89E49AE00E94D8108FE49AE0E7
:103BF0000E94D81085E59AE00E94D8108BE59AE0E3
:103C00000E94D81081E69AE00C94D810BB274A3065
:103C100031F4992322F4BDE2909581959F4F0C9445
:103C2000121EBB27FB015527AA27880F991FAA1F21
:103C3000A41710F0A41B83955051B9F7A05DAA33C7
:103C400008F0A95DA193009779F7B111B193119292
:103C5000CB010C944C202F923F924F925F926F9227
:103C60007F928F929F92AF92BF92CF92DF92EF920C
:103C7000FF920F931F93CF93DF9300D000D000D01B
:103C80001F921F92CDB7DEB77C013B018A01FC0178
:103C900017821682838181FFDDC1CE0101965C010E
:103CA000F7019381F30193FD859193FF81913F018A
:103CB000882309F453C1853239F493FD859193FF2C
:103CC00081913F01853229F4B70190E00E945C2088
:103CD000E7CF912C212C312CFFE1F31538F08B32FA
:103CE00011F190F4803209F1833229F137FC3CC0A4
:103CF00020ED280F2A3050F536FE20C08AE0989E2D
:103D0000200D1124922E06C08D3291F0803371F770
:103D1000689430F8F30193FD859193FF81913F0101
:103D20008111DACF21C0689431F8689432F8F2CF6B
:103D3000689433F8EFCF689434F8ECCFEAE02E9E25
:103D4000200D1124222E689435F8E4CF8E3229F408
:103D500036FC04C1689436F8DDCF8C3619F46894CB
:103D600037F8D8CF8836B1F2982F9F7D955493308D
:103D7000E0F08336A1F18337C1F1833509F063C0E8
:103D80002801F2E04F0E511CF801C080D180692D4E
:103D900070E036FC02C06FEF7FEFC6010E94362054
:103DA0004C01689437F882010AC00C5F1F4FFFE393
:103DB000F98388248394912C6501E89437F833FEC5
:103DC0002DC0522C8114910471F5552009F468CF4F
:103DD000B70180E290E00E945C205A94F6CFF8018F
:103DE000808189830E5F1F4FE4CF2801F2E04F0EE0
:103DF000511CF801C080D180692D70E036FC02C0F2
:103E00006FEF7FEFC6010E9441204C018201D5CFA8
:103E1000B70180E290E00E945C202A9428141904E3
:103E200009F0B0F7CECFF60137FC859137FE8191CE
:103E30006F01B70190E00E945C2051105A94F1E0AC
:103E40008F1A9108BFCF843619F0893609F077C0F0
:103E5000F80137FE6BC060817181828193810C5FB4
:103E60001F4FF32DFF763F2E97FF09C09095809549
:103E7000709561957F4F8F4F9F4F689437F82AE078
:103E800030E0A5010E948C20C82ECA188C2C432C2F
:103E900036FE0CC0E89440F8C91440F434FE05C066
:103EA00032FC03C0F32DFE7E4F2E892C44FEAAC0A7
:103EB000FE01EC0DF11D8081803309F09CC0242DA2
:103EC000297E422E842D8870582E43FCAAC040FEC5
:103ED000A4C09C2C821418F42C0C922C981844FE2C
:103EE000A6C0B70180E390E00E945C2042FE09C0BA
:103EF00088E790E041FE02C088E590E0B7010E94AB
:103F00005C20C91408F49FC0CA94D12C9FEFC91A31
:103F1000D90ACA0CDB1CF60182916F01B70190E04F
:103F20000E945C20AC14BD04B1F74FCF6081718159
:103F3000072E000C880B990B0E5F1F4F92CFD32CCE
:103F4000E894D4F82AE030E08537E1F1232D297F89
:103F5000D22E8F36A9F1F0F4883551F1F701868120
:103F600097812B960FB6F894DEBF0FBECDBFDF91C1
:103F7000CF911F910F91FF90EF90DF90CF90BF9066
:103F8000AF909F908F907F906F905F904F903F90F9
:103F90002F900895803749F0883701F7D4FE02C08A
:103FA0006894D2F820E130E00DC06894D4F8F6CFE0
:103FB00034FE03C0822F8660D82E20E132E002C09A
:103FC00028E030E0F801D7FE0FC060817181828166
:103FD00093810C5F1F4FA5010E948C20C82ECA1828
:103FE0003D2CE89437F852CF6081718190E080E0F9
:103FF0000E5F1F4FF0CF42FC02C0839463CF8394C7
:10400000839460CF842D867809F45CCFF6CFB70116
:1040100080E290E00E945C2083948214C0F3512CD3
:104020005ECF522C5818821408F459CFF8CF842D43
:10403000867809F466CF8BE241FE80E247FC8DE290
:10404000B70190E05CCFB70180E390E00E945C2074
:104050009A9457CF8FEF9FEF84CF91110C94EA2061
:10406000803219F089508550C8F70895FC010590F9
:10407000615070400110D8F7809590958E0F9F1F6A
:104080000895FC016150704001900110D8F78095AF
:1040900090958E0F9F1F0895DC01FC01672F719191
:1040A0007723E1F7329704C07C916D93708362911E
:1040B000AE17BF07C8F308950F931F93CF93DF93F5
:1040C000182F092FEB018B8181FD09C01FEF0FEF26
:1040D000812F902FDF91CF911F910F91089582FF33
:1040E00014C02E813F818C819D81281739073CF4B3
:1040F000E881F981CF0101969983888310838E81AD
:104100009F8101969F838E83E3CFE885F985812F78
:104110001995892BA1F3DACFFA01AA27283051F19A
:10412000203181F1E8946F936E7F6E5F7F4F8F4FE8
:104130009F4FAF4FB1E03ED0B4E03CD0670F781F47
:10414000891F9A1FA11D680F791F8A1F911DA11D2C
:104150006A0F711D811D911DA11D20D009F4689465
:104160003F912AE0269F11243019305D3193DEF60D
:10417000CF010895462F4770405D4193B3E00FD0C3
:10418000C9F7F6CF462F4F70405D4A3318F0495DAE
:1041900031FD4052419302D0A9F7EACFB4E0A69591
:1041A0009795879577956795BA95C9F700976105B3
:1041B000710508959B01AC010A2E06945795479509
:1041C00037952795BA95C9F7620F731F841F951FFE
:1041D000A01D08959927882708950E94F820A59F7B
:1041E000900DB49F900DA49F800D911D11240895F2
:1041F000A29FB001B39FC001A39F700D811D112428
:10420000911DB29F700D811D1124911D0895A1E291
:104210001A2EAA1BBB1BFD010DC0AA1FBB1FEE1F40
:10422000FF1FA217B307E407F50720F0A21BB30B8B
:10423000E40BF50B661F771F881F991F1A9469F707
:1042400060957095809590959B01AC01BD01CF0163
:104250000895EE0FFF1F881F8BBF0790F691E02D8A
:1042600019940F931F93CF93DF938230910510F42D
:1042700082E090E0E091840AF091850A30E020E04D
:10428000B0E0A0E0309799F42115310509F44AC057
:10429000281B390B24303105D8F58A819B816115A3
:1042A000710589F1FB0193838283FE0111C0408176
:1042B00051810281138148175907E0F048175907C7
:1042C00099F4109761F012960C93129713961C9321
:1042D0003296CF01DF91CF911F910F9108950093F6
:1042E000840A1093850AF4CF2115310551F0421745
:1042F000530738F0A901DB019A01BD01DF01F80184
:10430000C1CFEF01F9CF9093850A8093840ACDCF76
:10431000FE01E20FF31F81939193225031093983FB
:104320002883D7CF2091820A3091830A232B41F42E
:1043300020910602309107023093830A2093820A6B
:1043400020910402309105022115310541F42DB769
:104350003EB74091080250910902241B350BE091B1
:10436000820AF091830AE217F307A0F42E1B3F0B99
:104370002817390778F0AC014E5F5F4F24173507D7
:1043800048F04E0F5F1F5093830A4093820A819337
:1043900091939FCFF0E0E0E09CCFCF93DF93009725
:1043A000E9F0FC01329713821282A091840AB09145
:1043B000850AED0130E020E01097A1F420813181E1
:1043C000820F931F2091820A3091830A28173907A0
:1043D00009F061C0F093830AE093820ADF91CF91E4
:1043E0000895EA01CE17DF07E8F54A815B819E0157
:1043F00041155105B1F7E901FB83EA8349915991D0
:10440000C40FD51FEC17FD0761F4808191810296DE
:10441000840F951FE90199838883828193819B830F
:104420008A83F0E0E0E012968D919C9113970097BB
:10443000B9F52D913C911197CD010296820F931FF2
:104440002091820A3091830A2817390739F630976C
:1044500051F51092850A1092840AB093830AA093B2
:10446000820ABCCFD383C28340815181840F951FC0
:10447000C817D90761F44E5F5F4F88819981480F53
:10448000591F518340838A819B81938382832115A5
:10449000310509F0B0CFF093850AE093840A9ECFEE
:1044A000FD01DC01C0CF13821282D7CF4F925F9201
:1044B0006F927F928F929F92AF92BF92CF92DF9234
:1044C000EF92FF920F931F93CF93DF938C0100978E
:1044D00099F4CB01DF91CF911F910F91FF90EF9055
:1044E000DF90CF90BF90AF909F908F907F906F9014
:1044F0005F904F900C943121FC01E60FF71F9C0157
:1045000022503109E217F30708F4AEC0D901CD916A
:10451000DC911197C617D70720F1C530D10578F087
:10452000CE0104978617970750F0C61BD70B22972A
:10453000C193D1936D937C93CF010E94CD21C8018B
:10454000DF91CF911F910F91FF90EF90DF90CF906F
:10455000BF90AF909F908F907F906F905F904F90A3
:1045600008955B01AC1ABD0A4C018C0E9D1EA091F2
:10457000840AB091850A512C412CF12CE12C109722
:1045800031F58091820A9091830A8815990509F086
:104590005CC04616570608F058C0809104029091FE
:1045A0000502009741F48DB79EB7409108025091E3
:1045B0000902841B950BE817F90708F055C0F09322
:1045C000830AE093820AF90171836083B8CF8D91E9
:1045D0009C91119712966C90129713967C9013975A
:1045E000A815B90559F56C0142E0C40ED11CCA14D6
:1045F000DB0420F1AC014A195B09DA011296159728
:1046000080F06282738251834083D9016D937C93E1
:10461000E114F10471F0D7011396FC93EE93129715
:104620008ECF22968C0F9D1FF90191838083F30119
:10463000EFCFF093850AE093840A81CF481659069C
:1046400008F42C017D01D3019ACFCB010E943121C6
:104650007C01009749F0AE01B8010E944423C801D3
:104660000E94CD2187016BCF10E000E068CFFB01F5
:10467000DC0104C08D910190801921F4415050401B
:10468000C8F7881B990B0895FB01DC0102C001905B
:104690000D9241505040D8F70895FC018191861742
:1046A00021F08823D9F7992708953197CF010895EC
:1046B000FB01DC0101900D920020E1F70895FB0160
:1046C000DC014150504048F001900D920020C9F7A4
:1046D00001C01D9241505040E0F70895FB015191F7
:1046E0005523A9F0BF01DC014D9145174111E1F7B8
:1046F00059F4CD010190002049F04D914015411130
:10470000C9F3FB014111EFCF81E090E001970895DB
:104710000F931F93CF93DF93CDB7DEB72E970FB6CE
:10472000F894DEBF0FBECDBF0E891F8986E08C8353
:104730001A8309838FEF9FE79E838D83AE01465EC8
:104740005F4F688D798DCE0101960E942B1E2F81BF
:104750003885020F131FF80110822E960FB6F894B9
:10476000DEBF0FBECDBFDF91CF911F910F91089596
:10477000CF93DF93CDB7DEB72E970FB6F894DEBF99
:104780000FBECDBF85E08C838C899D899A838983F8
:10479000AE01485E5F4F6E897F89CE0101960E940F
:1047A00084252E960FB6F894DEBF0FBECDBFDF91E5
:1047B000CF91089520FD09C0FC0123FD05C022FF13
:1047C00002C07383628351834083089544FD17C000
:1047D00046FD1DC0DB01FC01AA0FBB1FEE1FFF1F22
:1047E0001094D1F76A0F7B1F8E1F9F1F660F771FD4
:1047F000881F991F620F711D811D911D089533E05F
:10480000660F771F881F991F3150D1F7F3CF34E01F
:10481000F7CF0F931F93CF93DF938C01C8010E94B2
:10482000A826EC0197FD08C00E942D20892BB1F726
:10483000B801CE010E94E426CE01DF91CF911F91F5
:104840000F9108958F929F92AF92BF92EF92FF9235
:104850000F931F93CF93DF938C01D62F7A01B22E43
:104860000E94A8269C0133272B32310529F02D32D6
:104870003105A9F46894B7F8D15061F480E0DF9174
:10488000CF911F910F91FF90EF90BF90AF909F90AD
:104890008F900895C8010E94A82697FDEFCFCB2DD9
:1048A000CD7F2B2D2073F9F48033E9F4AA24AA9448
:1048B000AD0E89F0C8010E94A82697FD0CC0282FD4
:1048C0002F7D283561F4C264D25029F0C8010E94BE
:1048D000A82697FF08C0812C912C54011BC0B6FE5E
:1048E0002BC0C260DA2D812C912C540120ED280FB1
:1048F000283028F1C4FD09C02A3008F1C6FF05C0E0
:104900002F7D3FEE320F3630C8F0B8010E94E4260A
:10491000C1FFB4CFC7FF08C0B094A0949094809416
:10492000811C911CA11CB11C2C2FB501A401C70135
:104930000E94DA2381E0A3CFC261D4CF27504C2F4D
:10494000C501B4010E94E6234B015C01C260D15055
:1049500009F3C8010E94A82697FFC8CFD9CF7F923C
:104960008F929F92AF92BF92CF92DF92EF92FF927F
:104970000F931F93CF93DF93CDB7DEB7A0970FB6FA
:10498000F894DEBF0FBECDBF5C01962E7A01CE013A
:1049900001966C0180E2F60111928A95E9F7F50122
:1049A000B381890130E020E0712C812CA0E041E04E
:1049B00050E0F801B3FD8591B3FF8191982F8F01ED
:1049C000811117C010E000E0C801A0960FB6F8945E
:1049D000DEBF0FBECDBFDF91CF911F910F91FF9032
:1049E000EF90DF90CF90BF90AF909F908F907F908F
:1049F00008958E3519F42115310541F1A2171306DA
:104A00004CF48D3549F18D3229F4811006C088248B
:104A100083941DC0882009F464C0E92FE695E695CB
:104A2000E695EC0DFD2DF11D892F8770BA0101C0AF
:104A3000660F8A95EAF78081682B6083791651F0BA
:104A4000971510F49F5FE9CF9150E7CFA1E02F5F5A
:104A50003F4FAFCF812CFBCF882019F08E81806231
:104A60008E83AA2359F0F6019E012F5D3F4F80816E
:104A7000809580833196E217F307C9F788248394E1
:104A8000C5010E94A82697FD16C0E82FE695E69579
:104A9000E695EC0DFD2DF11D208130E0AC01477055
:104AA000552702C0359527954A95E2F720FD06C0A7
:104AB000B5010E94E426882069F084CFE114F10456
:104AC00029F0F7018083C70101967C019A94812C1B
:104AD0009110D6CFE114F10409F476CFF7011082DA
:104AE00073CFE82FE695E695E695EC0DFD2DF11DCB
:104AF000982F9770BA0101C0660F9A95EAF79081D6
:104B0000692B6083782EA3CF5F926F927F928F92F2
:104B10009F92AF92BF92CF92DF92EF92FF920F934C
:104B20001F93CF93DF936C01EB015A01FC011782B5
:104B30001682512CF601E380FE01E3FC8591E3FE31
:104B40008191182FEF018823E9F090E00E942D2039
:104B5000892B21F0C6010E940924ECCF153241F4C3
:104B6000FE01E3FC1591E3FE1191EF01153269F4AA
:104B7000C6010E94A82697FD8EC01817D9F2B6016B
:104B80000E94E426852D90E08AC000E01A3231F4BC
:104B9000E3FC1591E3FE1191EF0101E0F12C20ED12
:104BA000210F2A3048F101FF37C0FF2059F3183692
:104BB000B1F11C3609F43DC0112321F3612F70E0DF
:104BC00084E791E00E949D26892BE1F2912C812CB3
:104BD00000FD06C0F50180809180C50102965C0150
:104BE0001E3679F5F6014681578170E060E0202F8E
:104BF000C4010E94DA239ECF02606F2D70E090E026
:104C000080E040E20E94E623F62EFE01E3FC1591CF
:104C1000E3FE1191EF01C3CFFF24FA94C8CFFE0148
:104C2000E3FC1591E3FE1191EF01183609F0C4CFB2
:104C300008600460FE01E3FC1591E3FE1191EF01B1
:104C4000BBCF1336C1F401FD02C0FF24F394C601AB
:104C50000E94A82697FD1FC08114910429F0F40139
:104C60008083C40101964C01FA94F110F0CF00FD4D
:104C700061CF53945FCF1B3511F59E01A4016F2DB9
:104C8000C6010E94AF24EC01892B89F7F6018381CC
:104C9000807309F477CF8FEF9FEF511073CFDF91BF
:104CA000CF911F910F91FF90EF90DF90CF90BF9029
:104CB000AF909F908F907F906F905F900895C60106
:104CC0000E94092497FDE7CF1F36A9F130F414366E
:104CD00041F0193639F0006405C01337B9F01537C3
:104CE000D1F70062202FA4016F2DC6010E9422245B
:104CF0008111BDCFCBCF8114910429F0F4016082E2
:104D0000C40101964C01FA94FF2071F0C6010E9483
:104D1000A8263C0197FD08C00E942D20892B59F33D
:104D2000B601C3010E94E4268114910409F49FCFC7
:104D3000F40110829CCF0061D5CFFC0105900616CE
:104D400021F00020D9F7C00108953197CF010895CF
:104D5000CF93DF93EC012B8120FF1AC026FF0CC0FC
:104D60002F7B2B838E819F8101969F838E838A81E7
:104D700090E0DF91CF91089522FF18C0E881F9817A
:104D80008081082E000C990B009729F420622B8358
:104D90008FEF9FEFEECF3196F983E8832E813F812D
:104DA0002F5F3F4F3F832E839927E3CFEA85FB8513
:104DB000199597FFF3CF2B81019621F080E2822B8A
:104DC0008B83E6CF80E1FBCFFB01238120FF11C065
:104DD00026FD0FC08F3F980771F082832F7D2064DE
:104DE00023832681378121503109378326839927F0
:104DF00008958FEF9FEF089511E0C4E6D1E000E041
:104E000006C0802FFE010E9429212196011DC53672
:0C4E1000D10780E00807A9F7F894FFCF55
:104E1C00FFFFFFFF0000860A8000696E7465726EEA
:104E2C0065742E766F6461666F6E652E6E657400A8
:104E3C0068747470733A2F2F736865686162686167
:104E4C007373616E2E6769746875622E696F2F4675
:104E5C004F54415F544553542F6669726D2E7478CC
:104E6C007400000000004703A702D402940305035A
:104E7C00E302F70200000000210DA7021B0BA602A3
:104E8C0000000000D80DBB0DAB0D820D8B0D0D0F6E
:104E9C00170F0D0A00415420526573706F6E7365C5
:104EAC003A20004F4B004572726F723A20415420E9
:104EBC00636F6D6D616E64206661696C6564210061
:104ECC00496E697469616C697A696E6720485454DB
:104EDC00502E2E2E0041542B48545450494E4954B8
:104EEC000053657474696E672055524C2E2E2E003B
:104EFC0041542B48545450504152413D2255524C30
:104F0C00222C22005374617274696E6720485454C9
:104F1C00502047455420726571756573742E2E2E82
:104F2C000041542B48545450414354494F4E3D304A
:104F3C0000485454502053746174757320436F644B
:104F4C00653A2000446174612053697A653A200007
:104F5C002B48545450414354494F4E3A00457874B1
:104F6C007261637465642048545450414354494FF2
:104F7C004E20726573706F6E73653A20002B485427
:104F8C005450414354494F4E3A20252A642C2564F1
:104F9C002C2564004661696C656420746F20706117
:104FAC0072736520726573706F6E73652100415466
:104FBC002B485454505445524D004854545041437E
:104FCC0054494F4E20726573706F6E7365206E6F0F
:104FDC007420666F756E64210048545450207265BD
:104FEC007175657374206661696C65642E205465F7
:104FFC00726D696E6174696E6720485454502073E9
:10500C00657373696F6E2E0052656164696E6720FB
:10501C0048545450206461746120696E2063687533
:10502C006E6B732E2E2E006669726D2E7478740062
:10503C006279746573546F526561643A200041540F
:10504C002B48545450524541443D002C005265614C
:10505C0064696E67206368756E6B3A20002F00439D
:10506C0068756E6B20736176656420746F20534491
:10507C0020636172642E004572726F72206F7065CE
:10508C006E696E672066696C6520666F7220777238
:10509C006974696E672E004279746573207265635A
:1050AC00656976656420736F206661723A200044EE
:1050BC006F776E6C6F616420636F6D706C65746577
:1050CC00212046696C6520736176656420746F20BD
:1050DC00534420636172642E004F70656E696E6775
:1050EC002053442043617264202E202E202E005326
:1050FC0044204361726420726561647920746F206E
:10510C00757365004661696C656420746F206F70FF
:10511C00656E20534420436172640053494D373609
:10512C0030305F636865636B5F7369676E616C5F7A
:10513C007175616C697479202E2E2E2E2E2E2E00F8
:10514C0041542B4353510049636865636B4E65743E
:10515C00776F726B537461747573202E2E2E2E2EF6
:10516C002E0041540041542B435245473F00496E99
:10517C00697469616C697A696E672048545450206F
:10518C0073657475702E2E2E004572726F723A20F4
:10519C004E6574776F726B20726567697374726198
:1051AC0074696F6E206661696C6564210041542BD3
:1051BC0043474154543D31004572726F723A204658
:1051CC0061696C656420746F20617474616368201C
:1051DC00746F2047505253210041542B4347414395
:1051EC00543D312C31004572726F723A2046616920
:1051FC006C656420746F20616374697661746520DA
:10520C0050445020636F6E74657874210041542BA8
:10521C00434744434F4E543D312C224950222C22BB
:10522C00257322004572726F723A204661696C6573
:10523C006420746F207365742041504E21004854D3
:10524C00545020736574757020636F6D706C657449
:10525C006564207375636365737366756C6C792113
:10526C000053494D373630303A20446F6E6520007C
:00000001FF
