:100000000C9465010C9496010C9496010C94960145
:100010000C9496010C9496010C9496010C94960104
:100020000C9496010C9496010C9496010C949601F4
:100030000C9496010C9496010C9496010C949601E4
:100040000C9496010C9496010C9496010C949601D4
:100050000C9496010C9496010C9496010C94CC1877
:100060000C9496010C94A0190C9476190C9496019A
:100070000C9496010C9496010C9496010C949601A4
:100080000C9496010C9496010C9496010C94960194
:100090000C9440190C9416190C9496010C94D619D2
:1000A0000C9496010C9496010C9496010C94960174
:1000B0000C9496010C9496010C9496010C94960164
:1000C0000C9496010C9496010C9496010C94960154
:1000D0000C9496010C9496010C9496010C94960144
:1000E0000C9496010C9432020C940D0F0C94A70200
:1000F0000C948B0D0C94210D0C9428020C94050388
:100100000C941A020C941E020C94F21D0C9416020C
:100110000C943E020C94E7010C94D80D0C94F01A48
:100120000C94820D0C94E3020C9424020C94A6020D
:100130000C94D4020C9447030C94F7020C94BB0D5E
:100140000C942C020C94EC010C9410020C941B0BDC
:100150000C94AB0D0C94FE010C9406020C949403C9
:100160000C94170F0C9436020C9402020C943A0271
:100170000C940C026364696E6F70737578585B0041
:100180007C3C3E5E2B3D3F2F5B5D3B2C2A225C007E
:1001900000000B0C030A0D0E0F09080405020000F5
:1001A000000000000000000000000000000000004F
:1001B0000000000000000000000000001312110009
:1001C000000000000000000000000000000000002F
:1001D000000000000000000000000000000000001F
:1001E00000000000000000002200250028002B0075
:1001F0002E003100340002010000050108010B014E
:1002000000002100240027002A002D0030003300C8
:1002100001010000040107010A01050505050705A4
:1002200008080808020202020A0A08080404040472
:10023000010101010101010103030303030303039E
:10024000040707070C0C0C0C0C0C0C0C020202022D
:1002500006060606060606060B0B0B0B0B0B0B0B16
:10026000050505080807070404040A0A0A0A0A0A19
:1002700001021020200808102040102040800201B8
:10028000020108040201010204081020408080409D
:10029000201008040201800402018040201008049C
:1002A000020108040201010204081020408001023A
:1002B0000408102040800440800480081010204072
:1002C000040810204080F01AF21D11241FBECFEF49
:1002D000D1E2DEBFCDBF00E00CBF2AE0A0E6B6E071
:1002E00001C01D92A638B207E1F716E0A0E0B2E027
:1002F000ECE1FEE400E00BBF02C007900D92A036D7
:10030000B107D9F711E0C4E6D1E000E006C02197BB
:100310000109802FFE010E942921C336D10780E008